{
	"while.sol": {
		"While": {
			"abi": [
				{
					"inputs": [
						{
							"internalType": "uint256",
							"name": "_n",
							"type": "uint256"
						}
					],
					"name": "while_1",
					"outputs": [
						{
							"internalType": "uint256",
							"name": "",
							"type": "uint256"
						},
						{
							"internalType": "uint256",
							"name": "",
							"type": "uint256"
						}
					],
					"stateMutability": "nonpayable",
					"type": "function"
				},
				{
					"inputs": [
						{
							"internalType": "uint256",
							"name": "_n",
							"type": "uint256"
						}
					],
					"name": "while_2",
					"outputs": [
						{
							"internalType": "uint256[]",
							"name": "",
							"type": "uint256[]"
						}
					],
					"stateMutability": "nonpayable",
					"type": "function"
				},
				{
					"inputs": [
						{
							"internalType": "uint256",
							"name": "_n",
							"type": "uint256"
						}
					],
					"name": "while_4",
					"outputs": [
						{
							"internalType": "uint256",
							"name": "",
							"type": "uint256"
						}
					],
					"stateMutability": "nonpayable",
					"type": "function"
				}
			],
			"devdoc": {
				"kind": "dev",
				"methods": {},
				"version": 1
			},
			"evm": {
				"assembly": "    /* \"while.sol\":168:1175  contract While { // for. while 차이? while은 시작 등이 조금 애매하거나 할 때. ... */\n  mstore(0x40, 0x80)\n    /* \"while.sol\":281:282  1 */\n  0x01\n    /* \"while.sol\":268:282  uint STATE = 1 */\n  0x00\n  sstore\n    /* \"while.sol\":168:1175  contract While { // for. while 차이? while은 시작 등이 조금 애매하거나 할 때. ... */\n  callvalue\n  dup1\n  iszero\n  tag_1\n  jumpi\n  0x00\n  dup1\n  revert\ntag_1:\n  pop\n  dataSize(sub_0)\n  dup1\n  dataOffset(sub_0)\n  0x00\n  codecopy\n  0x00\n  return\nstop\n\nsub_0: assembly {\n        /* \"while.sol\":168:1175  contract While { // for. while 차이? while은 시작 등이 조금 애매하거나 할 때. ... */\n      mstore(0x40, 0x80)\n      callvalue\n      dup1\n      iszero\n      tag_1\n      jumpi\n      0x00\n      dup1\n      revert\n    tag_1:\n      pop\n      jumpi(tag_2, lt(calldatasize, 0x04))\n      shr(0xe0, calldataload(0x00))\n      dup1\n      0x052b762a\n      eq\n      tag_3\n      jumpi\n      dup1\n      0x4425506b\n      eq\n      tag_4\n      jumpi\n      dup1\n      0x5b6d42c2\n      eq\n      tag_5\n      jumpi\n    tag_2:\n      0x00\n      dup1\n      revert\n        /* \"while.sol\":956:1166  function while_4(uint _n) public returns(uint) {... */\n    tag_3:\n      tag_6\n      0x04\n      dup1\n      calldatasize\n      sub\n      dup2\n      add\n      swap1\n      tag_7\n      swap2\n      swap1\n      tag_8\n      jump\t// in\n    tag_7:\n      tag_9\n      jump\t// in\n    tag_6:\n      mload(0x40)\n      tag_10\n      swap2\n      swap1\n      tag_11\n      jump\t// in\n    tag_10:\n      mload(0x40)\n      dup1\n      swap2\n      sub\n      swap1\n      return\n        /* \"while.sol\":498:701  function while_2(uint _n) public returns(uint[] memory) {... */\n    tag_4:\n      tag_12\n      0x04\n      dup1\n      calldatasize\n      sub\n      dup2\n      add\n      swap1\n      tag_13\n      swap2\n      swap1\n      tag_8\n      jump\t// in\n    tag_13:\n      tag_14\n      jump\t// in\n    tag_12:\n      mload(0x40)\n      tag_15\n      swap2\n      swap1\n      tag_16\n      jump\t// in\n    tag_15:\n      mload(0x40)\n      dup1\n      swap2\n      sub\n      swap1\n      return\n        /* \"while.sol\":289:470  function while_1(uint _n) public returns(uint, uint) {... */\n    tag_5:\n      tag_17\n      0x04\n      dup1\n      calldatasize\n      sub\n      dup2\n      add\n      swap1\n      tag_18\n      swap2\n      swap1\n      tag_8\n      jump\t// in\n    tag_18:\n      tag_19\n      jump\t// in\n    tag_17:\n      mload(0x40)\n      tag_20\n      swap3\n      swap2\n      swap1\n      tag_21\n      jump\t// in\n    tag_20:\n      mload(0x40)\n      dup1\n      swap2\n      sub\n      swap1\n      return\n        /* \"while.sol\":956:1166  function while_4(uint _n) public returns(uint) {... */\n    tag_9:\n        /* \"while.sol\":997:1001  uint */\n      0x00\n        /* \"while.sol\":1013:1019  uint i */\n      dup1\n        /* \"while.sol\":1022:1023  1 */\n      0x01\n        /* \"while.sol\":1013:1023  uint i = 1 */\n      swap1\n      pop\n        /* \"while.sol\":1033:1039  uint n */\n      0x00\n        /* \"while.sol\":1062:1140  while(_n > i ) {... */\n    tag_23:\n        /* \"while.sol\":1073:1074  i */\n      dup2\n        /* \"while.sol\":1068:1070  _n */\n      dup5\n        /* \"while.sol\":1068:1074  _n > i */\n      gt\n        /* \"while.sol\":1062:1140  while(_n > i ) {... */\n      iszero\n      tag_24\n      jumpi\n        /* \"while.sol\":1097:1099  10 */\n      0x0a\n        /* \"while.sol\":1092:1099  i *= 10 */\n      dup3\n      tag_25\n      swap2\n      swap1\n      tag_26\n      jump\t// in\n    tag_25:\n      swap2\n      pop\n        /* \"while.sol\":1113:1116  n++ */\n      dup1\n      dup1\n      tag_27\n      swap1\n      tag_28\n      jump\t// in\n    tag_27:\n      swap2\n      pop\n      pop\n        /* \"while.sol\":1062:1140  while(_n > i ) {... */\n      jump(tag_23)\n    tag_24:\n        /* \"while.sol\":1157:1158  n */\n      dup1\n        /* \"while.sol\":1150:1158  return n */\n      swap3\n      pop\n      pop\n      pop\n        /* \"while.sol\":956:1166  function while_4(uint _n) public returns(uint) {... */\n      swap2\n      swap1\n      pop\n      jump\t// out\n        /* \"while.sol\":498:701  function while_2(uint _n) public returns(uint[] memory) {... */\n    tag_14:\n        /* \"while.sol\":539:552  uint[] memory */\n      0x60\n        /* \"while.sol\":564:570  uint i */\n      0x00\n        /* \"while.sol\":573:574  1 */\n      0x01\n        /* \"while.sol\":564:574  uint i = 1 */\n      swap1\n      pop\n        /* \"while.sol\":593:669  while(i <= _n) {... */\n    tag_30:\n        /* \"while.sol\":604:606  _n */\n      dup3\n        /* \"while.sol\":599:600  i */\n      dup2\n        /* \"while.sol\":599:606  i <= _n */\n      gt\n        /* \"while.sol\":593:669  while(i <= _n) {... */\n      tag_31\n      jumpi\n        /* \"while.sol\":622:629  numbers */\n      0x01\n        /* \"while.sol\":639:640  i */\n      dup2\n        /* \"while.sol\":635:636  2 */\n      0x02\n        /* \"while.sol\":635:640  2 * i */\n      tag_32\n      swap2\n      swap1\n      tag_26\n      jump\t// in\n    tag_32:\n        /* \"while.sol\":622:641  numbers.push(2 * i) */\n      swap1\n      dup1\n      0x01\n      dup2\n      sload\n      add\n      dup1\n      dup3\n      sstore\n      dup1\n      swap2\n      pop\n      pop\n      0x01\n      swap1\n      sub\n      swap1\n      0x00\n      mstore\n      keccak256(0x00, 0x20)\n      add\n      0x00\n      swap1\n      swap2\n      swap1\n      swap2\n      swap1\n      swap2\n      pop\n      sstore\n        /* \"while.sol\":655:658  i++ */\n      dup1\n      dup1\n      tag_34\n      swap1\n      tag_28\n      jump\t// in\n    tag_34:\n      swap2\n      pop\n      pop\n        /* \"while.sol\":593:669  while(i <= _n) {... */\n      jump(tag_30)\n    tag_31:\n        /* \"while.sol\":686:693  numbers */\n      0x01\n        /* \"while.sol\":679:693  return numbers */\n      dup1\n      sload\n      dup1\n      0x20\n      mul\n      0x20\n      add\n      mload(0x40)\n      swap1\n      dup2\n      add\n      0x40\n      mstore\n      dup1\n      swap3\n      swap2\n      swap1\n      dup2\n      dup2\n      mstore\n      0x20\n      add\n      dup3\n      dup1\n      sload\n      dup1\n      iszero\n      tag_35\n      jumpi\n      0x20\n      mul\n      dup3\n      add\n      swap2\n      swap1\n      0x00\n      mstore\n      keccak256(0x00, 0x20)\n      swap1\n    tag_36:\n      dup2\n      sload\n      dup2\n      mstore\n      0x20\n      add\n      swap1\n      0x01\n      add\n      swap1\n      dup1\n      dup4\n      gt\n      tag_36\n      jumpi\n    tag_35:\n      pop\n      pop\n      pop\n      pop\n      pop\n      swap2\n      pop\n      pop\n        /* \"while.sol\":498:701  function while_2(uint _n) public returns(uint[] memory) {... */\n      swap2\n      swap1\n      pop\n      jump\t// out\n        /* \"while.sol\":289:470  function while_1(uint _n) public returns(uint, uint) {... */\n    tag_19:\n        /* \"while.sol\":330:334  uint */\n      0x00\n        /* \"while.sol\":336:340  uint */\n      dup1\n        /* \"while.sol\":352:358  uint a */\n      0x00\n        /* \"while.sol\":369:435  while(_n > a) {... */\n    tag_38:\n        /* \"while.sol\":380:381  a */\n      dup1\n        /* \"while.sol\":375:377  _n */\n      dup5\n        /* \"while.sol\":375:381  _n > a */\n      gt\n        /* \"while.sol\":369:435  while(_n > a) {... */\n      iszero\n      tag_39\n      jumpi\n        /* \"while.sol\":406:407  2 */\n      0x02\n        /* \"while.sol\":397:402  STATE */\n      0x00\n      dup1\n        /* \"while.sol\":397:407  STATE *= 2 */\n      dup3\n      dup3\n      sload\n      tag_40\n      swap2\n      swap1\n      tag_26\n      jump\t// in\n    tag_40:\n      swap3\n      pop\n      pop\n      dup2\n      swap1\n      sstore\n      pop\n        /* \"while.sol\":421:424  a++ */\n      dup1\n      dup1\n      tag_41\n      swap1\n      tag_28\n      jump\t// in\n    tag_41:\n      swap2\n      pop\n      pop\n        /* \"while.sol\":369:435  while(_n > a) {... */\n      jump(tag_38)\n    tag_39:\n        /* \"while.sol\":453:458  STATE */\n      sload(0x00)\n        /* \"while.sol\":460:461  a */\n      dup2\n        /* \"while.sol\":445:462  return (STATE, a) */\n      swap3\n      pop\n      swap3\n      pop\n      pop\n        /* \"while.sol\":289:470  function while_1(uint _n) public returns(uint, uint) {... */\n      swap2\n      pop\n      swap2\n      jump\t// out\n        /* \"#utility.yul\":88:205   */\n    tag_43:\n        /* \"#utility.yul\":197:198   */\n      0x00\n        /* \"#utility.yul\":194:195   */\n      dup1\n        /* \"#utility.yul\":187:199   */\n      revert\n        /* \"#utility.yul\":334:411   */\n    tag_45:\n        /* \"#utility.yul\":371:378   */\n      0x00\n        /* \"#utility.yul\":400:405   */\n      dup2\n        /* \"#utility.yul\":389:405   */\n      swap1\n      pop\n        /* \"#utility.yul\":334:411   */\n      swap2\n      swap1\n      pop\n      jump\t// out\n        /* \"#utility.yul\":417:539   */\n    tag_46:\n        /* \"#utility.yul\":490:514   */\n      tag_63\n        /* \"#utility.yul\":508:513   */\n      dup2\n        /* \"#utility.yul\":490:514   */\n      tag_45\n      jump\t// in\n    tag_63:\n        /* \"#utility.yul\":483:488   */\n      dup2\n        /* \"#utility.yul\":480:515   */\n      eq\n        /* \"#utility.yul\":470:533   */\n      tag_64\n      jumpi\n        /* \"#utility.yul\":529:530   */\n      0x00\n        /* \"#utility.yul\":526:527   */\n      dup1\n        /* \"#utility.yul\":519:531   */\n      revert\n        /* \"#utility.yul\":470:533   */\n    tag_64:\n        /* \"#utility.yul\":417:539   */\n      pop\n      jump\t// out\n        /* \"#utility.yul\":545:684   */\n    tag_47:\n        /* \"#utility.yul\":591:596   */\n      0x00\n        /* \"#utility.yul\":629:635   */\n      dup2\n        /* \"#utility.yul\":616:636   */\n      calldataload\n        /* \"#utility.yul\":607:636   */\n      swap1\n      pop\n        /* \"#utility.yul\":645:678   */\n      tag_66\n        /* \"#utility.yul\":672:677   */\n      dup2\n        /* \"#utility.yul\":645:678   */\n      tag_46\n      jump\t// in\n    tag_66:\n        /* \"#utility.yul\":545:684   */\n      swap3\n      swap2\n      pop\n      pop\n      jump\t// out\n        /* \"#utility.yul\":690:1019   */\n    tag_8:\n        /* \"#utility.yul\":749:755   */\n      0x00\n        /* \"#utility.yul\":798:800   */\n      0x20\n        /* \"#utility.yul\":786:795   */\n      dup3\n        /* \"#utility.yul\":777:784   */\n      dup5\n        /* \"#utility.yul\":773:796   */\n      sub\n        /* \"#utility.yul\":769:801   */\n      slt\n        /* \"#utility.yul\":766:885   */\n      iszero\n      tag_68\n      jumpi\n        /* \"#utility.yul\":804:883   */\n      tag_69\n      tag_43\n      jump\t// in\n    tag_69:\n        /* \"#utility.yul\":766:885   */\n    tag_68:\n        /* \"#utility.yul\":924:925   */\n      0x00\n        /* \"#utility.yul\":949:1002   */\n      tag_70\n        /* \"#utility.yul\":994:1001   */\n      dup5\n        /* \"#utility.yul\":985:991   */\n      dup3\n        /* \"#utility.yul\":974:983   */\n      dup6\n        /* \"#utility.yul\":970:992   */\n      add\n        /* \"#utility.yul\":949:1002   */\n      tag_47\n      jump\t// in\n    tag_70:\n        /* \"#utility.yul\":939:1002   */\n      swap2\n      pop\n        /* \"#utility.yul\":895:1012   */\n      pop\n        /* \"#utility.yul\":690:1019   */\n      swap3\n      swap2\n      pop\n      pop\n      jump\t// out\n        /* \"#utility.yul\":1025:1143   */\n    tag_48:\n        /* \"#utility.yul\":1112:1136   */\n      tag_72\n        /* \"#utility.yul\":1130:1135   */\n      dup2\n        /* \"#utility.yul\":1112:1136   */\n      tag_45\n      jump\t// in\n    tag_72:\n        /* \"#utility.yul\":1107:1110   */\n      dup3\n        /* \"#utility.yul\":1100:1137   */\n      mstore\n        /* \"#utility.yul\":1025:1143   */\n      pop\n      pop\n      jump\t// out\n        /* \"#utility.yul\":1149:1371   */\n    tag_11:\n        /* \"#utility.yul\":1242:1246   */\n      0x00\n        /* \"#utility.yul\":1280:1282   */\n      0x20\n        /* \"#utility.yul\":1269:1278   */\n      dup3\n        /* \"#utility.yul\":1265:1283   */\n      add\n        /* \"#utility.yul\":1257:1283   */\n      swap1\n      pop\n        /* \"#utility.yul\":1293:1364   */\n      tag_74\n        /* \"#utility.yul\":1361:1362   */\n      0x00\n        /* \"#utility.yul\":1350:1359   */\n      dup4\n        /* \"#utility.yul\":1346:1363   */\n      add\n        /* \"#utility.yul\":1337:1343   */\n      dup5\n        /* \"#utility.yul\":1293:1364   */\n      tag_48\n      jump\t// in\n    tag_74:\n        /* \"#utility.yul\":1149:1371   */\n      swap3\n      swap2\n      pop\n      pop\n      jump\t// out\n        /* \"#utility.yul\":1377:1491   */\n    tag_49:\n        /* \"#utility.yul\":1444:1450   */\n      0x00\n        /* \"#utility.yul\":1478:1483   */\n      dup2\n        /* \"#utility.yul\":1472:1484   */\n      mload\n        /* \"#utility.yul\":1462:1484   */\n      swap1\n      pop\n        /* \"#utility.yul\":1377:1491   */\n      swap2\n      swap1\n      pop\n      jump\t// out\n        /* \"#utility.yul\":1497:1681   */\n    tag_50:\n        /* \"#utility.yul\":1596:1607   */\n      0x00\n        /* \"#utility.yul\":1630:1636   */\n      dup3\n        /* \"#utility.yul\":1625:1628   */\n      dup3\n        /* \"#utility.yul\":1618:1637   */\n      mstore\n        /* \"#utility.yul\":1670:1674   */\n      0x20\n        /* \"#utility.yul\":1665:1668   */\n      dup3\n        /* \"#utility.yul\":1661:1675   */\n      add\n        /* \"#utility.yul\":1646:1675   */\n      swap1\n      pop\n        /* \"#utility.yul\":1497:1681   */\n      swap3\n      swap2\n      pop\n      pop\n      jump\t// out\n        /* \"#utility.yul\":1687:1819   */\n    tag_51:\n        /* \"#utility.yul\":1754:1758   */\n      0x00\n        /* \"#utility.yul\":1777:1780   */\n      dup2\n        /* \"#utility.yul\":1769:1780   */\n      swap1\n      pop\n        /* \"#utility.yul\":1807:1811   */\n      0x20\n        /* \"#utility.yul\":1802:1805   */\n      dup3\n        /* \"#utility.yul\":1798:1812   */\n      add\n        /* \"#utility.yul\":1790:1812   */\n      swap1\n      pop\n        /* \"#utility.yul\":1687:1819   */\n      swap2\n      swap1\n      pop\n      jump\t// out\n        /* \"#utility.yul\":1825:1933   */\n    tag_52:\n        /* \"#utility.yul\":1902:1926   */\n      tag_79\n        /* \"#utility.yul\":1920:1925   */\n      dup2\n        /* \"#utility.yul\":1902:1926   */\n      tag_45\n      jump\t// in\n    tag_79:\n        /* \"#utility.yul\":1897:1900   */\n      dup3\n        /* \"#utility.yul\":1890:1927   */\n      mstore\n        /* \"#utility.yul\":1825:1933   */\n      pop\n      pop\n      jump\t// out\n        /* \"#utility.yul\":1939:2118   */\n    tag_53:\n        /* \"#utility.yul\":2008:2018   */\n      0x00\n        /* \"#utility.yul\":2029:2075   */\n      tag_81\n        /* \"#utility.yul\":2071:2074   */\n      dup4\n        /* \"#utility.yul\":2063:2069   */\n      dup4\n        /* \"#utility.yul\":2029:2075   */\n      tag_52\n      jump\t// in\n    tag_81:\n        /* \"#utility.yul\":2107:2111   */\n      0x20\n        /* \"#utility.yul\":2102:2105   */\n      dup4\n        /* \"#utility.yul\":2098:2112   */\n      add\n        /* \"#utility.yul\":2084:2112   */\n      swap1\n      pop\n        /* \"#utility.yul\":1939:2118   */\n      swap3\n      swap2\n      pop\n      pop\n      jump\t// out\n        /* \"#utility.yul\":2124:2237   */\n    tag_54:\n        /* \"#utility.yul\":2194:2198   */\n      0x00\n        /* \"#utility.yul\":2226:2230   */\n      0x20\n        /* \"#utility.yul\":2221:2224   */\n      dup3\n        /* \"#utility.yul\":2217:2231   */\n      add\n        /* \"#utility.yul\":2209:2231   */\n      swap1\n      pop\n        /* \"#utility.yul\":2124:2237   */\n      swap2\n      swap1\n      pop\n      jump\t// out\n        /* \"#utility.yul\":2273:3005   */\n    tag_55:\n        /* \"#utility.yul\":2392:2395   */\n      0x00\n        /* \"#utility.yul\":2421:2475   */\n      tag_84\n        /* \"#utility.yul\":2469:2474   */\n      dup3\n        /* \"#utility.yul\":2421:2475   */\n      tag_49\n      jump\t// in\n    tag_84:\n        /* \"#utility.yul\":2491:2577   */\n      tag_85\n        /* \"#utility.yul\":2570:2576   */\n      dup2\n        /* \"#utility.yul\":2565:2568   */\n      dup6\n        /* \"#utility.yul\":2491:2577   */\n      tag_50\n      jump\t// in\n    tag_85:\n        /* \"#utility.yul\":2484:2577   */\n      swap4\n      pop\n        /* \"#utility.yul\":2601:2657   */\n      tag_86\n        /* \"#utility.yul\":2651:2656   */\n      dup4\n        /* \"#utility.yul\":2601:2657   */\n      tag_51\n      jump\t// in\n    tag_86:\n        /* \"#utility.yul\":2680:2687   */\n      dup1\n        /* \"#utility.yul\":2711:2712   */\n      0x00\n        /* \"#utility.yul\":2696:2980   */\n    tag_87:\n        /* \"#utility.yul\":2721:2727   */\n      dup4\n        /* \"#utility.yul\":2718:2719   */\n      dup2\n        /* \"#utility.yul\":2715:2728   */\n      lt\n        /* \"#utility.yul\":2696:2980   */\n      iszero\n      tag_89\n      jumpi\n        /* \"#utility.yul\":2797:2803   */\n      dup2\n        /* \"#utility.yul\":2791:2804   */\n      mload\n        /* \"#utility.yul\":2824:2887   */\n      tag_90\n        /* \"#utility.yul\":2883:2886   */\n      dup9\n        /* \"#utility.yul\":2868:2881   */\n      dup3\n        /* \"#utility.yul\":2824:2887   */\n      tag_53\n      jump\t// in\n    tag_90:\n        /* \"#utility.yul\":2817:2887   */\n      swap8\n      pop\n        /* \"#utility.yul\":2910:2970   */\n      tag_91\n        /* \"#utility.yul\":2963:2969   */\n      dup4\n        /* \"#utility.yul\":2910:2970   */\n      tag_54\n      jump\t// in\n    tag_91:\n        /* \"#utility.yul\":2900:2970   */\n      swap3\n      pop\n        /* \"#utility.yul\":2756:2980   */\n      pop\n        /* \"#utility.yul\":2743:2744   */\n      0x01\n        /* \"#utility.yul\":2740:2741   */\n      dup2\n        /* \"#utility.yul\":2736:2745   */\n      add\n        /* \"#utility.yul\":2731:2745   */\n      swap1\n      pop\n        /* \"#utility.yul\":2696:2980   */\n      jump(tag_87)\n    tag_89:\n        /* \"#utility.yul\":2700:2714   */\n      pop\n        /* \"#utility.yul\":2996:2999   */\n      dup6\n        /* \"#utility.yul\":2989:2999   */\n      swap4\n      pop\n        /* \"#utility.yul\":2397:3005   */\n      pop\n      pop\n      pop\n        /* \"#utility.yul\":2273:3005   */\n      swap3\n      swap2\n      pop\n      pop\n      jump\t// out\n        /* \"#utility.yul\":3011:3384   */\n    tag_16:\n        /* \"#utility.yul\":3154:3158   */\n      0x00\n        /* \"#utility.yul\":3192:3194   */\n      0x20\n        /* \"#utility.yul\":3181:3190   */\n      dup3\n        /* \"#utility.yul\":3177:3195   */\n      add\n        /* \"#utility.yul\":3169:3195   */\n      swap1\n      pop\n        /* \"#utility.yul\":3241:3250   */\n      dup2\n        /* \"#utility.yul\":3235:3239   */\n      dup2\n        /* \"#utility.yul\":3231:3251   */\n      sub\n        /* \"#utility.yul\":3227:3228   */\n      0x00\n        /* \"#utility.yul\":3216:3225   */\n      dup4\n        /* \"#utility.yul\":3212:3229   */\n      add\n        /* \"#utility.yul\":3205:3252   */\n      mstore\n        /* \"#utility.yul\":3269:3377   */\n      tag_93\n        /* \"#utility.yul\":3372:3376   */\n      dup2\n        /* \"#utility.yul\":3363:3369   */\n      dup5\n        /* \"#utility.yul\":3269:3377   */\n      tag_55\n      jump\t// in\n    tag_93:\n        /* \"#utility.yul\":3261:3377   */\n      swap1\n      pop\n        /* \"#utility.yul\":3011:3384   */\n      swap3\n      swap2\n      pop\n      pop\n      jump\t// out\n        /* \"#utility.yul\":3390:3722   */\n    tag_21:\n        /* \"#utility.yul\":3511:3515   */\n      0x00\n        /* \"#utility.yul\":3549:3551   */\n      0x40\n        /* \"#utility.yul\":3538:3547   */\n      dup3\n        /* \"#utility.yul\":3534:3552   */\n      add\n        /* \"#utility.yul\":3526:3552   */\n      swap1\n      pop\n        /* \"#utility.yul\":3562:3633   */\n      tag_95\n        /* \"#utility.yul\":3630:3631   */\n      0x00\n        /* \"#utility.yul\":3619:3628   */\n      dup4\n        /* \"#utility.yul\":3615:3632   */\n      add\n        /* \"#utility.yul\":3606:3612   */\n      dup6\n        /* \"#utility.yul\":3562:3633   */\n      tag_48\n      jump\t// in\n    tag_95:\n        /* \"#utility.yul\":3643:3715   */\n      tag_96\n        /* \"#utility.yul\":3711:3713   */\n      0x20\n        /* \"#utility.yul\":3700:3709   */\n      dup4\n        /* \"#utility.yul\":3696:3714   */\n      add\n        /* \"#utility.yul\":3687:3693   */\n      dup5\n        /* \"#utility.yul\":3643:3715   */\n      tag_48\n      jump\t// in\n    tag_96:\n        /* \"#utility.yul\":3390:3722   */\n      swap4\n      swap3\n      pop\n      pop\n      pop\n      jump\t// out\n        /* \"#utility.yul\":3728:3908   */\n    tag_56:\n        /* \"#utility.yul\":3776:3853   */\n      0x4e487b7100000000000000000000000000000000000000000000000000000000\n        /* \"#utility.yul\":3773:3774   */\n      0x00\n        /* \"#utility.yul\":3766:3854   */\n      mstore\n        /* \"#utility.yul\":3873:3877   */\n      0x11\n        /* \"#utility.yul\":3870:3871   */\n      0x04\n        /* \"#utility.yul\":3863:3878   */\n      mstore\n        /* \"#utility.yul\":3897:3901   */\n      0x24\n        /* \"#utility.yul\":3894:3895   */\n      0x00\n        /* \"#utility.yul\":3887:3902   */\n      revert\n        /* \"#utility.yul\":3914:4324   */\n    tag_26:\n        /* \"#utility.yul\":3954:3961   */\n      0x00\n        /* \"#utility.yul\":3977:3997   */\n      tag_99\n        /* \"#utility.yul\":3995:3996   */\n      dup3\n        /* \"#utility.yul\":3977:3997   */\n      tag_45\n      jump\t// in\n    tag_99:\n        /* \"#utility.yul\":3972:3997   */\n      swap2\n      pop\n        /* \"#utility.yul\":4011:4031   */\n      tag_100\n        /* \"#utility.yul\":4029:4030   */\n      dup4\n        /* \"#utility.yul\":4011:4031   */\n      tag_45\n      jump\t// in\n    tag_100:\n        /* \"#utility.yul\":4006:4031   */\n      swap3\n      pop\n        /* \"#utility.yul\":4066:4067   */\n      dup3\n        /* \"#utility.yul\":4063:4064   */\n      dup3\n        /* \"#utility.yul\":4059:4068   */\n      mul\n        /* \"#utility.yul\":4088:4118   */\n      tag_101\n        /* \"#utility.yul\":4106:4117   */\n      dup2\n        /* \"#utility.yul\":4088:4118   */\n      tag_45\n      jump\t// in\n    tag_101:\n        /* \"#utility.yul\":4077:4118   */\n      swap2\n      pop\n        /* \"#utility.yul\":4267:4268   */\n      dup3\n        /* \"#utility.yul\":4258:4265   */\n      dup3\n        /* \"#utility.yul\":4254:4269   */\n      div\n        /* \"#utility.yul\":4251:4252   */\n      dup5\n        /* \"#utility.yul\":4248:4270   */\n      eq\n        /* \"#utility.yul\":4228:4229   */\n      dup4\n        /* \"#utility.yul\":4221:4230   */\n      iszero\n        /* \"#utility.yul\":4201:4284   */\n      or\n        /* \"#utility.yul\":4178:4317   */\n      tag_102\n      jumpi\n        /* \"#utility.yul\":4297:4315   */\n      tag_103\n      tag_56\n      jump\t// in\n    tag_103:\n        /* \"#utility.yul\":4178:4317   */\n    tag_102:\n        /* \"#utility.yul\":3962:4324   */\n      pop\n        /* \"#utility.yul\":3914:4324   */\n      swap3\n      swap2\n      pop\n      pop\n      jump\t// out\n        /* \"#utility.yul\":4330:4563   */\n    tag_28:\n        /* \"#utility.yul\":4369:4372   */\n      0x00\n        /* \"#utility.yul\":4392:4416   */\n      tag_105\n        /* \"#utility.yul\":4410:4415   */\n      dup3\n        /* \"#utility.yul\":4392:4416   */\n      tag_45\n      jump\t// in\n    tag_105:\n        /* \"#utility.yul\":4383:4416   */\n      swap2\n      pop\n        /* \"#utility.yul\":4438:4504   */\n      0xffffffffffffffffffffffffffffffffffffffffffffffffffffffffffffffff\n        /* \"#utility.yul\":4431:4436   */\n      dup3\n        /* \"#utility.yul\":4428:4505   */\n      sub\n        /* \"#utility.yul\":4425:4528   */\n      tag_106\n      jumpi\n        /* \"#utility.yul\":4508:4526   */\n      tag_107\n      tag_56\n      jump\t// in\n    tag_107:\n        /* \"#utility.yul\":4425:4528   */\n    tag_106:\n        /* \"#utility.yul\":4555:4556   */\n      0x01\n        /* \"#utility.yul\":4548:4553   */\n      dup3\n        /* \"#utility.yul\":4544:4557   */\n      add\n        /* \"#utility.yul\":4537:4557   */\n      swap1\n      pop\n        /* \"#utility.yul\":4330:4563   */\n      swap2\n      swap1\n      pop\n      jump\t// out\n\n    auxdata: 0xa2646970667358221220429cff7bf64cfdb6a2c756ff1666ad7f073283c31c2e80a307f577861612525364736f6c63430008170033\n}\n",
				"bytecode": {
					"linkReferences": {},
					"object": "608060405260015f55348015610013575f80fd5b50610472806100215f395ff3fe608060405234801561000f575f80fd5b506004361061003f575f3560e01c8063052b762a146100435780634425506b146100735780635b6d42c2146100a3575b5f80fd5b61005d60048036038101906100589190610236565b6100d4565b60405161006a9190610270565b60405180910390f35b61008d60048036038101906100889190610236565b610110565b60405161009a9190610340565b60405180910390f35b6100bd60048036038101906100b89190610236565b6101bb565b6040516100cb929190610360565b60405180910390f35b5f80600190505f5b8184111561010657600a826100f191906103b4565b915080806100fe906103f5565b9150506100dc565b8092505050919050565b60605f600190505b82811161016457600181600261012e91906103b4565b908060018154018082558091505060019003905f5260205f20015f9091909190915055808061015c906103f5565b915050610118565b60018054806020026020016040519081016040528092919081815260200182805480156101ae57602002820191905f5260205f20905b81548152602001906001019080831161019a575b5050505050915050919050565b5f805f5b808411156101f25760025f808282546101d891906103b4565b9250508190555080806101ea906103f5565b9150506101bf565b5f54819250925050915091565b5f80fd5b5f819050919050565b61021581610203565b811461021f575f80fd5b50565b5f813590506102308161020c565b92915050565b5f6020828403121561024b5761024a6101ff565b5b5f61025884828501610222565b91505092915050565b61026a81610203565b82525050565b5f6020820190506102835f830184610261565b92915050565b5f81519050919050565b5f82825260208201905092915050565b5f819050602082019050919050565b6102bb81610203565b82525050565b5f6102cc83836102b2565b60208301905092915050565b5f602082019050919050565b5f6102ee82610289565b6102f88185610293565b9350610303836102a3565b805f5b8381101561033357815161031a88826102c1565b9750610325836102d8565b925050600181019050610306565b5085935050505092915050565b5f6020820190508181035f83015261035881846102e4565b905092915050565b5f6040820190506103735f830185610261565b6103806020830184610261565b9392505050565b7f4e487b71000000000000000000000000000000000000000000000000000000005f52601160045260245ffd5b5f6103be82610203565b91506103c983610203565b92508282026103d781610203565b915082820484148315176103ee576103ed610387565b5b5092915050565b5f6103ff82610203565b91507fffffffffffffffffffffffffffffffffffffffffffffffffffffffffffffffff820361043157610430610387565b5b60018201905091905056fea2646970667358221220429cff7bf64cfdb6a2c756ff1666ad7f073283c31c2e80a307f577861612525364736f6c63430008170033",
					"opcodes": "PUSH1 0x80 PUSH1 0x40 MSTORE PUSH1 0x1 PUSH0 SSTORE CALLVALUE DUP1 ISZERO PUSH2 0x13 JUMPI PUSH0 DUP1 REVERT JUMPDEST POP PUSH2 0x472 DUP1 PUSH2 0x21 PUSH0 CODECOPY PUSH0 RETURN INVALID PUSH1 0x80 PUSH1 0x40 MSTORE CALLVALUE DUP1 ISZERO PUSH2 0xF JUMPI PUSH0 DUP1 REVERT JUMPDEST POP PUSH1 0x4 CALLDATASIZE LT PUSH2 0x3F JUMPI PUSH0 CALLDATALOAD PUSH1 0xE0 SHR DUP1 PUSH4 0x52B762A EQ PUSH2 0x43 JUMPI DUP1 PUSH4 0x4425506B EQ PUSH2 0x73 JUMPI DUP1 PUSH4 0x5B6D42C2 EQ PUSH2 0xA3 JUMPI JUMPDEST PUSH0 DUP1 REVERT JUMPDEST PUSH2 0x5D PUSH1 0x4 DUP1 CALLDATASIZE SUB DUP2 ADD SWAP1 PUSH2 0x58 SWAP2 SWAP1 PUSH2 0x236 JUMP JUMPDEST PUSH2 0xD4 JUMP JUMPDEST PUSH1 0x40 MLOAD PUSH2 0x6A SWAP2 SWAP1 PUSH2 0x270 JUMP JUMPDEST PUSH1 0x40 MLOAD DUP1 SWAP2 SUB SWAP1 RETURN JUMPDEST PUSH2 0x8D PUSH1 0x4 DUP1 CALLDATASIZE SUB DUP2 ADD SWAP1 PUSH2 0x88 SWAP2 SWAP1 PUSH2 0x236 JUMP JUMPDEST PUSH2 0x110 JUMP JUMPDEST PUSH1 0x40 MLOAD PUSH2 0x9A SWAP2 SWAP1 PUSH2 0x340 JUMP JUMPDEST PUSH1 0x40 MLOAD DUP1 SWAP2 SUB SWAP1 RETURN JUMPDEST PUSH2 0xBD PUSH1 0x4 DUP1 CALLDATASIZE SUB DUP2 ADD SWAP1 PUSH2 0xB8 SWAP2 SWAP1 PUSH2 0x236 JUMP JUMPDEST PUSH2 0x1BB JUMP JUMPDEST PUSH1 0x40 MLOAD PUSH2 0xCB SWAP3 SWAP2 SWAP1 PUSH2 0x360 JUMP JUMPDEST PUSH1 0x40 MLOAD DUP1 SWAP2 SUB SWAP1 RETURN JUMPDEST PUSH0 DUP1 PUSH1 0x1 SWAP1 POP PUSH0 JUMPDEST DUP2 DUP5 GT ISZERO PUSH2 0x106 JUMPI PUSH1 0xA DUP3 PUSH2 0xF1 SWAP2 SWAP1 PUSH2 0x3B4 JUMP JUMPDEST SWAP2 POP DUP1 DUP1 PUSH2 0xFE SWAP1 PUSH2 0x3F5 JUMP JUMPDEST SWAP2 POP POP PUSH2 0xDC JUMP JUMPDEST DUP1 SWAP3 POP POP POP SWAP2 SWAP1 POP JUMP JUMPDEST PUSH1 0x60 PUSH0 PUSH1 0x1 SWAP1 POP JUMPDEST DUP3 DUP2 GT PUSH2 0x164 JUMPI PUSH1 0x1 DUP2 PUSH1 0x2 PUSH2 0x12E SWAP2 SWAP1 PUSH2 0x3B4 JUMP JUMPDEST SWAP1 DUP1 PUSH1 0x1 DUP2 SLOAD ADD DUP1 DUP3 SSTORE DUP1 SWAP2 POP POP PUSH1 0x1 SWAP1 SUB SWAP1 PUSH0 MSTORE PUSH1 0x20 PUSH0 KECCAK256 ADD PUSH0 SWAP1 SWAP2 SWAP1 SWAP2 SWAP1 SWAP2 POP SSTORE DUP1 DUP1 PUSH2 0x15C SWAP1 PUSH2 0x3F5 JUMP JUMPDEST SWAP2 POP POP PUSH2 0x118 JUMP JUMPDEST PUSH1 0x1 DUP1 SLOAD DUP1 PUSH1 0x20 MUL PUSH1 0x20 ADD PUSH1 0x40 MLOAD SWAP1 DUP2 ADD PUSH1 0x40 MSTORE DUP1 SWAP3 SWAP2 SWAP1 DUP2 DUP2 MSTORE PUSH1 0x20 ADD DUP3 DUP1 SLOAD DUP1 ISZERO PUSH2 0x1AE JUMPI PUSH1 0x20 MUL DUP3 ADD SWAP2 SWAP1 PUSH0 MSTORE PUSH1 0x20 PUSH0 KECCAK256 SWAP1 JUMPDEST DUP2 SLOAD DUP2 MSTORE PUSH1 0x20 ADD SWAP1 PUSH1 0x1 ADD SWAP1 DUP1 DUP4 GT PUSH2 0x19A JUMPI JUMPDEST POP POP POP POP POP SWAP2 POP POP SWAP2 SWAP1 POP JUMP JUMPDEST PUSH0 DUP1 PUSH0 JUMPDEST DUP1 DUP5 GT ISZERO PUSH2 0x1F2 JUMPI PUSH1 0x2 PUSH0 DUP1 DUP3 DUP3 SLOAD PUSH2 0x1D8 SWAP2 SWAP1 PUSH2 0x3B4 JUMP JUMPDEST SWAP3 POP POP DUP2 SWAP1 SSTORE POP DUP1 DUP1 PUSH2 0x1EA SWAP1 PUSH2 0x3F5 JUMP JUMPDEST SWAP2 POP POP PUSH2 0x1BF JUMP JUMPDEST PUSH0 SLOAD DUP2 SWAP3 POP SWAP3 POP POP SWAP2 POP SWAP2 JUMP JUMPDEST PUSH0 DUP1 REVERT JUMPDEST PUSH0 DUP2 SWAP1 POP SWAP2 SWAP1 POP JUMP JUMPDEST PUSH2 0x215 DUP2 PUSH2 0x203 JUMP JUMPDEST DUP2 EQ PUSH2 0x21F JUMPI PUSH0 DUP1 REVERT JUMPDEST POP JUMP JUMPDEST PUSH0 DUP2 CALLDATALOAD SWAP1 POP PUSH2 0x230 DUP2 PUSH2 0x20C JUMP JUMPDEST SWAP3 SWAP2 POP POP JUMP JUMPDEST PUSH0 PUSH1 0x20 DUP3 DUP5 SUB SLT ISZERO PUSH2 0x24B JUMPI PUSH2 0x24A PUSH2 0x1FF JUMP JUMPDEST JUMPDEST PUSH0 PUSH2 0x258 DUP5 DUP3 DUP6 ADD PUSH2 0x222 JUMP JUMPDEST SWAP2 POP POP SWAP3 SWAP2 POP POP JUMP JUMPDEST PUSH2 0x26A DUP2 PUSH2 0x203 JUMP JUMPDEST DUP3 MSTORE POP POP JUMP JUMPDEST PUSH0 PUSH1 0x20 DUP3 ADD SWAP1 POP PUSH2 0x283 PUSH0 DUP4 ADD DUP5 PUSH2 0x261 JUMP JUMPDEST SWAP3 SWAP2 POP POP JUMP JUMPDEST PUSH0 DUP2 MLOAD SWAP1 POP SWAP2 SWAP1 POP JUMP JUMPDEST PUSH0 DUP3 DUP3 MSTORE PUSH1 0x20 DUP3 ADD SWAP1 POP SWAP3 SWAP2 POP POP JUMP JUMPDEST PUSH0 DUP2 SWAP1 POP PUSH1 0x20 DUP3 ADD SWAP1 POP SWAP2 SWAP1 POP JUMP JUMPDEST PUSH2 0x2BB DUP2 PUSH2 0x203 JUMP JUMPDEST DUP3 MSTORE POP POP JUMP JUMPDEST PUSH0 PUSH2 0x2CC DUP4 DUP4 PUSH2 0x2B2 JUMP JUMPDEST PUSH1 0x20 DUP4 ADD SWAP1 POP SWAP3 SWAP2 POP POP JUMP JUMPDEST PUSH0 PUSH1 0x20 DUP3 ADD SWAP1 POP SWAP2 SWAP1 POP JUMP JUMPDEST PUSH0 PUSH2 0x2EE DUP3 PUSH2 0x289 JUMP JUMPDEST PUSH2 0x2F8 DUP2 DUP6 PUSH2 0x293 JUMP JUMPDEST SWAP4 POP PUSH2 0x303 DUP4 PUSH2 0x2A3 JUMP JUMPDEST DUP1 PUSH0 JUMPDEST DUP4 DUP2 LT ISZERO PUSH2 0x333 JUMPI DUP2 MLOAD PUSH2 0x31A DUP9 DUP3 PUSH2 0x2C1 JUMP JUMPDEST SWAP8 POP PUSH2 0x325 DUP4 PUSH2 0x2D8 JUMP JUMPDEST SWAP3 POP POP PUSH1 0x1 DUP2 ADD SWAP1 POP PUSH2 0x306 JUMP JUMPDEST POP DUP6 SWAP4 POP POP POP POP SWAP3 SWAP2 POP POP JUMP JUMPDEST PUSH0 PUSH1 0x20 DUP3 ADD SWAP1 POP DUP2 DUP2 SUB PUSH0 DUP4 ADD MSTORE PUSH2 0x358 DUP2 DUP5 PUSH2 0x2E4 JUMP JUMPDEST SWAP1 POP SWAP3 SWAP2 POP POP JUMP JUMPDEST PUSH0 PUSH1 0x40 DUP3 ADD SWAP1 POP PUSH2 0x373 PUSH0 DUP4 ADD DUP6 PUSH2 0x261 JUMP JUMPDEST PUSH2 0x380 PUSH1 0x20 DUP4 ADD DUP5 PUSH2 0x261 JUMP JUMPDEST SWAP4 SWAP3 POP POP POP JUMP JUMPDEST PUSH32 0x4E487B7100000000000000000000000000000000000000000000000000000000 PUSH0 MSTORE PUSH1 0x11 PUSH1 0x4 MSTORE PUSH1 0x24 PUSH0 REVERT JUMPDEST PUSH0 PUSH2 0x3BE DUP3 PUSH2 0x203 JUMP JUMPDEST SWAP2 POP PUSH2 0x3C9 DUP4 PUSH2 0x203 JUMP JUMPDEST SWAP3 POP DUP3 DUP3 MUL PUSH2 0x3D7 DUP2 PUSH2 0x203 JUMP JUMPDEST SWAP2 POP DUP3 DUP3 DIV DUP5 EQ DUP4 ISZERO OR PUSH2 0x3EE JUMPI PUSH2 0x3ED PUSH2 0x387 JUMP JUMPDEST JUMPDEST POP SWAP3 SWAP2 POP POP JUMP JUMPDEST PUSH0 PUSH2 0x3FF DUP3 PUSH2 0x203 JUMP JUMPDEST SWAP2 POP PUSH32 0xFFFFFFFFFFFFFFFFFFFFFFFFFFFFFFFFFFFFFFFFFFFFFFFFFFFFFFFFFFFFFFFF DUP3 SUB PUSH2 0x431 JUMPI PUSH2 0x430 PUSH2 0x387 JUMP JUMPDEST JUMPDEST PUSH1 0x1 DUP3 ADD SWAP1 POP SWAP2 SWAP1 POP JUMP INVALID LOG2 PUSH5 0x6970667358 0x22 SLT KECCAK256 TIMESTAMP SWAP13 SELFDESTRUCT PUSH28 0xF64CFDB6A2C756FF1666AD7F073283C31C2E80A307F5778616125253 PUSH5 0x736F6C6343 STOP ADDMOD OR STOP CALLER "
				},
				"gasEstimates": {
					"creation": {
						"codeDepositCost": "227600",
						"executionCost": "22372",
						"totalCost": "249972"
					},
					"external": {
						"while_1(uint256)": "infinite",
						"while_2(uint256)": "infinite",
						"while_4(uint256)": "infinite"
					}
				},
				"methodIdentifiers": {
					"while_1(uint256)": "5b6d42c2",
					"while_2(uint256)": "4425506b",
					"while_4(uint256)": "052b762a"
				}
			},
			"storageLayout": {
				"storage": [
					{
						"astId": 4,
						"contract": "while.sol:While",
						"label": "STATE",
						"offset": 0,
						"slot": "0",
						"type": "t_uint256"
					},
					{
						"astId": 36,
						"contract": "while.sol:While",
						"label": "numbers",
						"offset": 0,
						"slot": "1",
						"type": "t_array(t_uint256)dyn_storage"
					}
				],
				"types": {
					"t_array(t_uint256)dyn_storage": {
						"base": "t_uint256",
						"encoding": "dynamic_array",
						"label": "uint256[]",
						"numberOfBytes": "32"
					},
					"t_uint256": {
						"encoding": "inplace",
						"label": "uint256",
						"numberOfBytes": "32"
					}
				}
			},
			"userdoc": {
				"kind": "user",
				"methods": {},
				"version": 1
			}
		}
	}
}