{
	"AAA.sol": {
		"AAA": {
			"abi": [
				{
					"inputs": [
						{
							"internalType": "string",
							"name": "_name",
							"type": "string"
						},
						{
							"internalType": "uint256",
							"name": "_number",
							"type": "uint256"
						},
						{
							"internalType": "uint256",
							"name": "_score",
							"type": "uint256"
						}
					],
					"name": "addStudent",
					"outputs": [],
					"stateMutability": "nonpayable",
					"type": "function"
				},
				{
					"inputs": [],
					"name": "getAray",
					"outputs": [
						{
							"components": [
								{
									"internalType": "string",
									"name": "name",
									"type": "string"
								},
								{
									"internalType": "uint256",
									"name": "number",
									"type": "uint256"
								},
								{
									"internalType": "uint256",
									"name": "score",
									"type": "uint256"
								},
								{
									"internalType": "string",
									"name": "grade",
									"type": "string"
								}
							],
							"internalType": "struct AAA.Student[]",
							"name": "",
							"type": "tuple[]"
						}
					],
					"stateMutability": "view",
					"type": "function"
				},
				{
					"inputs": [
						{
							"internalType": "uint256",
							"name": "_n",
							"type": "uint256"
						}
					],
					"name": "setGrade",
					"outputs": [
						{
							"internalType": "string",
							"name": "",
							"type": "string"
						}
					],
					"stateMutability": "pure",
					"type": "function"
				}
			],
			"devdoc": {
				"kind": "dev",
				"methods": {},
				"version": 1
			},
			"evm": {
				"assembly": "    /* \"AAA.sol\":59:795  contract AAA {... */\n  mstore(0x40, 0x80)\n  callvalue\n  dup1\n  iszero\n  tag_1\n  jumpi\n  0x00\n  dup1\n  revert\ntag_1:\n  pop\n  dataSize(sub_0)\n  dup1\n  dataOffset(sub_0)\n  0x00\n  codecopy\n  0x00\n  return\nstop\n\nsub_0: assembly {\n        /* \"AAA.sol\":59:795  contract AAA {... */\n      mstore(0x40, 0x80)\n      callvalue\n      dup1\n      iszero\n      tag_1\n      jumpi\n      0x00\n      dup1\n      revert\n    tag_1:\n      pop\n      jumpi(tag_2, lt(calldatasize, 0x04))\n      shr(0xe0, calldataload(0x00))\n      dup1\n      0x674271cd\n      eq\n      tag_3\n      jumpi\n      dup1\n      0x682ad06e\n      eq\n      tag_4\n      jumpi\n      dup1\n      0x691ad41d\n      eq\n      tag_5\n      jumpi\n    tag_2:\n      0x00\n      dup1\n      revert\n        /* \"AAA.sol\":216:491  function setGrade(uint _n) public pure returns(string memory) {... */\n    tag_3:\n      tag_6\n      0x04\n      dup1\n      calldatasize\n      sub\n      dup2\n      add\n      swap1\n      tag_7\n      swap2\n      swap1\n      tag_8\n      jump\t// in\n    tag_7:\n      tag_9\n      jump\t// in\n    tag_6:\n      mload(0x40)\n      tag_10\n      swap2\n      swap1\n      tag_11\n      jump\t// in\n    tag_10:\n      mload(0x40)\n      dup1\n      swap2\n      sub\n      swap1\n      return\n        /* \"AAA.sol\":498:693  function addStudent(string memory _name, uint _number, uint _score) public {... */\n    tag_4:\n      tag_12\n      0x04\n      dup1\n      calldatasize\n      sub\n      dup2\n      add\n      swap1\n      tag_13\n      swap2\n      swap1\n      tag_14\n      jump\t// in\n    tag_13:\n      tag_15\n      jump\t// in\n    tag_12:\n      stop\n        /* \"AAA.sol\":699:788  function getAray() public view returns(Student[] memory) {... */\n    tag_5:\n      tag_16\n      tag_17\n      jump\t// in\n    tag_16:\n      mload(0x40)\n      tag_18\n      swap2\n      swap1\n      tag_19\n      jump\t// in\n    tag_18:\n      mload(0x40)\n      dup1\n      swap2\n      sub\n      swap1\n      return\n        /* \"AAA.sol\":216:491  function setGrade(uint _n) public pure returns(string memory) {... */\n    tag_9:\n        /* \"AAA.sol\":263:276  string memory */\n      0x60\n        /* \"AAA.sol\":297:299  90 */\n      0x5a\n        /* \"AAA.sol\":291:293  _n */\n      dup3\n        /* \"AAA.sol\":291:299  _n >= 90 */\n      lt\n        /* \"AAA.sol\":288:485  if(_n >= 90) {... */\n      tag_21\n      jumpi\n        /* \"AAA.sol\":315:325  return \"A\" */\n      mload(0x40)\n      dup1\n      0x40\n      add\n      0x40\n      mstore\n      dup1\n      0x01\n      dup2\n      mstore\n      0x20\n      add\n      0x4100000000000000000000000000000000000000000000000000000000000000\n      dup2\n      mstore\n      pop\n      swap1\n      pop\n      jump(tag_20)\n        /* \"AAA.sol\":288:485  if(_n >= 90) {... */\n    tag_21:\n        /* \"AAA.sol\":351:353  80 */\n      0x50\n        /* \"AAA.sol\":345:347  _n */\n      dup3\n        /* \"AAA.sol\":345:353  _n >= 80 */\n      lt\n        /* \"AAA.sol\":342:485  if(_n >= 80) {... */\n      tag_23\n      jumpi\n        /* \"AAA.sol\":369:379  return \"B\" */\n      mload(0x40)\n      dup1\n      0x40\n      add\n      0x40\n      mstore\n      dup1\n      0x01\n      dup2\n      mstore\n      0x20\n      add\n      0x4200000000000000000000000000000000000000000000000000000000000000\n      dup2\n      mstore\n      pop\n      swap1\n      pop\n      jump(tag_20)\n        /* \"AAA.sol\":342:485  if(_n >= 80) {... */\n    tag_23:\n        /* \"AAA.sol\":405:407  70 */\n      0x46\n        /* \"AAA.sol\":399:401  _n */\n      dup3\n        /* \"AAA.sol\":399:407  _n >= 70 */\n      lt\n        /* \"AAA.sol\":396:485  if(_n >= 70) {... */\n      tag_25\n      jumpi\n        /* \"AAA.sol\":423:433  return \"C\" */\n      mload(0x40)\n      dup1\n      0x40\n      add\n      0x40\n      mstore\n      dup1\n      0x01\n      dup2\n      mstore\n      0x20\n      add\n      0x4300000000000000000000000000000000000000000000000000000000000000\n      dup2\n      mstore\n      pop\n      swap1\n      pop\n      jump(tag_20)\n        /* \"AAA.sol\":396:485  if(_n >= 70) {... */\n    tag_25:\n        /* \"AAA.sol\":464:474  return \"F\" */\n      mload(0x40)\n      dup1\n      0x40\n      add\n      0x40\n      mstore\n      dup1\n      0x01\n      dup2\n      mstore\n      0x20\n      add\n      0x4600000000000000000000000000000000000000000000000000000000000000\n      dup2\n      mstore\n      pop\n      swap1\n      pop\n        /* \"AAA.sol\":216:491  function setGrade(uint _n) public pure returns(string memory) {... */\n    tag_20:\n      swap2\n      swap1\n      pop\n      jump\t// out\n        /* \"AAA.sol\":498:693  function addStudent(string memory _name, uint _number, uint _score) public {... */\n    tag_15:\n        /* \"AAA.sol\":584:603  string memory grade */\n      0x00\n        /* \"AAA.sol\":606:622  setGrade(_score) */\n      tag_28\n        /* \"AAA.sol\":615:621  _score */\n      dup3\n        /* \"AAA.sol\":606:614  setGrade */\n      tag_9\n        /* \"AAA.sol\":606:622  setGrade(_score) */\n      jump\t// in\n    tag_28:\n        /* \"AAA.sol\":584:622  string memory grade = setGrade(_score) */\n      swap1\n      pop\n        /* \"AAA.sol\":633:641  students */\n      0x00\n        /* \"AAA.sol\":647:685  Student(_name, _number, _score, grade) */\n      mload(0x40)\n      dup1\n      0x80\n      add\n      0x40\n      mstore\n      dup1\n        /* \"AAA.sol\":655:660  _name */\n      dup7\n        /* \"AAA.sol\":647:685  Student(_name, _number, _score, grade) */\n      dup2\n      mstore\n      0x20\n      add\n        /* \"AAA.sol\":662:669  _number */\n      dup6\n        /* \"AAA.sol\":647:685  Student(_name, _number, _score, grade) */\n      dup2\n      mstore\n      0x20\n      add\n        /* \"AAA.sol\":671:677  _score */\n      dup5\n        /* \"AAA.sol\":647:685  Student(_name, _number, _score, grade) */\n      dup2\n      mstore\n      0x20\n      add\n        /* \"AAA.sol\":679:684  grade */\n      dup4\n        /* \"AAA.sol\":647:685  Student(_name, _number, _score, grade) */\n      dup2\n      mstore\n      pop\n        /* \"AAA.sol\":633:686  students.push(Student(_name, _number, _score, grade)) */\n      swap1\n      dup1\n      0x01\n      dup2\n      sload\n      add\n      dup1\n      dup3\n      sstore\n      dup1\n      swap2\n      pop\n      pop\n      0x01\n      swap1\n      sub\n      swap1\n      0x00\n      mstore\n      keccak256(0x00, 0x20)\n      swap1\n      0x04\n      mul\n      add\n      0x00\n      swap1\n      swap2\n      swap1\n      swap2\n      swap1\n      swap2\n      pop\n      0x00\n      dup3\n      add\n      mload\n      dup2\n      0x00\n      add\n      swap1\n      dup2\n      tag_30\n      swap2\n      swap1\n      tag_31\n      jump\t// in\n    tag_30:\n      pop\n      0x20\n      dup3\n      add\n      mload\n      dup2\n      0x01\n      add\n      sstore\n      0x40\n      dup3\n      add\n      mload\n      dup2\n      0x02\n      add\n      sstore\n      0x60\n      dup3\n      add\n      mload\n      dup2\n      0x03\n      add\n      swap1\n      dup2\n      tag_32\n      swap2\n      swap1\n      tag_31\n      jump\t// in\n    tag_32:\n      pop\n      pop\n      pop\n        /* \"AAA.sol\":573:693  {... */\n      pop\n        /* \"AAA.sol\":498:693  function addStudent(string memory _name, uint _number, uint _score) public {... */\n      pop\n      pop\n      pop\n      jump\t// out\n        /* \"AAA.sol\":699:788  function getAray() public view returns(Student[] memory) {... */\n    tag_17:\n        /* \"AAA.sol\":738:754  Student[] memory */\n      0x60\n        /* \"AAA.sol\":773:781  students */\n      0x00\n        /* \"AAA.sol\":766:781  return students */\n      dup1\n      sload\n      dup1\n      0x20\n      mul\n      0x20\n      add\n      mload(0x40)\n      swap1\n      dup2\n      add\n      0x40\n      mstore\n      dup1\n      swap3\n      swap2\n      swap1\n      dup2\n      dup2\n      mstore\n      0x20\n      add\n      0x00\n      swap1\n    tag_34:\n      dup3\n      dup3\n      lt\n      iszero\n      tag_35\n      jumpi\n      dup4\n      dup3\n      swap1\n      0x00\n      mstore\n      keccak256(0x00, 0x20)\n      swap1\n      0x04\n      mul\n      add\n      mload(0x40)\n      dup1\n      0x80\n      add\n      0x40\n      mstore\n      swap1\n      dup2\n      0x00\n      dup3\n      add\n      dup1\n      sload\n      tag_37\n      swap1\n      tag_38\n      jump\t// in\n    tag_37:\n      dup1\n      0x1f\n      add\n      0x20\n      dup1\n      swap2\n      div\n      mul\n      0x20\n      add\n      mload(0x40)\n      swap1\n      dup2\n      add\n      0x40\n      mstore\n      dup1\n      swap3\n      swap2\n      swap1\n      dup2\n      dup2\n      mstore\n      0x20\n      add\n      dup3\n      dup1\n      sload\n      tag_39\n      swap1\n      tag_38\n      jump\t// in\n    tag_39:\n      dup1\n      iszero\n      tag_40\n      jumpi\n      dup1\n      0x1f\n      lt\n      tag_41\n      jumpi\n      0x0100\n      dup1\n      dup4\n      sload\n      div\n      mul\n      dup4\n      mstore\n      swap2\n      0x20\n      add\n      swap2\n      jump(tag_40)\n    tag_41:\n      dup3\n      add\n      swap2\n      swap1\n      0x00\n      mstore\n      keccak256(0x00, 0x20)\n      swap1\n    tag_42:\n      dup2\n      sload\n      dup2\n      mstore\n      swap1\n      0x01\n      add\n      swap1\n      0x20\n      add\n      dup1\n      dup4\n      gt\n      tag_42\n      jumpi\n      dup3\n      swap1\n      sub\n      0x1f\n      and\n      dup3\n      add\n      swap2\n    tag_40:\n      pop\n      pop\n      pop\n      pop\n      pop\n      dup2\n      mstore\n      0x20\n      add\n      0x01\n      dup3\n      add\n      sload\n      dup2\n      mstore\n      0x20\n      add\n      0x02\n      dup3\n      add\n      sload\n      dup2\n      mstore\n      0x20\n      add\n      0x03\n      dup3\n      add\n      dup1\n      sload\n      tag_43\n      swap1\n      tag_38\n      jump\t// in\n    tag_43:\n      dup1\n      0x1f\n      add\n      0x20\n      dup1\n      swap2\n      div\n      mul\n      0x20\n      add\n      mload(0x40)\n      swap1\n      dup2\n      add\n      0x40\n      mstore\n      dup1\n      swap3\n      swap2\n      swap1\n      dup2\n      dup2\n      mstore\n      0x20\n      add\n      dup3\n      dup1\n      sload\n      tag_44\n      swap1\n      tag_38\n      jump\t// in\n    tag_44:\n      dup1\n      iszero\n      tag_45\n      jumpi\n      dup1\n      0x1f\n      lt\n      tag_46\n      jumpi\n      0x0100\n      dup1\n      dup4\n      sload\n      div\n      mul\n      dup4\n      mstore\n      swap2\n      0x20\n      add\n      swap2\n      jump(tag_45)\n    tag_46:\n      dup3\n      add\n      swap2\n      swap1\n      0x00\n      mstore\n      keccak256(0x00, 0x20)\n      swap1\n    tag_47:\n      dup2\n      sload\n      dup2\n      mstore\n      swap1\n      0x01\n      add\n      swap1\n      0x20\n      add\n      dup1\n      dup4\n      gt\n      tag_47\n      jumpi\n      dup3\n      swap1\n      sub\n      0x1f\n      and\n      dup3\n      add\n      swap2\n    tag_45:\n      pop\n      pop\n      pop\n      pop\n      pop\n      dup2\n      mstore\n      pop\n      pop\n      dup2\n      mstore\n      0x20\n      add\n      swap1\n      0x01\n      add\n      swap1\n      jump(tag_34)\n    tag_35:\n      pop\n      pop\n      pop\n      pop\n      swap1\n      pop\n        /* \"AAA.sol\":699:788  function getAray() public view returns(Student[] memory) {... */\n      swap1\n      jump\t// out\n        /* \"#utility.yul\":7:82   */\n    tag_48:\n        /* \"#utility.yul\":40:46   */\n      0x00\n        /* \"#utility.yul\":73:75   */\n      0x40\n        /* \"#utility.yul\":67:76   */\n      mload\n        /* \"#utility.yul\":57:76   */\n      swap1\n      pop\n        /* \"#utility.yul\":7:82   */\n      swap1\n      jump\t// out\n        /* \"#utility.yul\":88:205   */\n    tag_49:\n        /* \"#utility.yul\":197:198   */\n      0x00\n        /* \"#utility.yul\":194:195   */\n      dup1\n        /* \"#utility.yul\":187:199   */\n      revert\n        /* \"#utility.yul\":211:328   */\n    tag_50:\n        /* \"#utility.yul\":320:321   */\n      0x00\n        /* \"#utility.yul\":317:318   */\n      dup1\n        /* \"#utility.yul\":310:322   */\n      revert\n        /* \"#utility.yul\":334:411   */\n    tag_51:\n        /* \"#utility.yul\":371:378   */\n      0x00\n        /* \"#utility.yul\":400:405   */\n      dup2\n        /* \"#utility.yul\":389:405   */\n      swap1\n      pop\n        /* \"#utility.yul\":334:411   */\n      swap2\n      swap1\n      pop\n      jump\t// out\n        /* \"#utility.yul\":417:539   */\n    tag_52:\n        /* \"#utility.yul\":490:514   */\n      tag_100\n        /* \"#utility.yul\":508:513   */\n      dup2\n        /* \"#utility.yul\":490:514   */\n      tag_51\n      jump\t// in\n    tag_100:\n        /* \"#utility.yul\":483:488   */\n      dup2\n        /* \"#utility.yul\":480:515   */\n      eq\n        /* \"#utility.yul\":470:533   */\n      tag_101\n      jumpi\n        /* \"#utility.yul\":529:530   */\n      0x00\n        /* \"#utility.yul\":526:527   */\n      dup1\n        /* \"#utility.yul\":519:531   */\n      revert\n        /* \"#utility.yul\":470:533   */\n    tag_101:\n        /* \"#utility.yul\":417:539   */\n      pop\n      jump\t// out\n        /* \"#utility.yul\":545:684   */\n    tag_53:\n        /* \"#utility.yul\":591:596   */\n      0x00\n        /* \"#utility.yul\":629:635   */\n      dup2\n        /* \"#utility.yul\":616:636   */\n      calldataload\n        /* \"#utility.yul\":607:636   */\n      swap1\n      pop\n        /* \"#utility.yul\":645:678   */\n      tag_103\n        /* \"#utility.yul\":672:677   */\n      dup2\n        /* \"#utility.yul\":645:678   */\n      tag_52\n      jump\t// in\n    tag_103:\n        /* \"#utility.yul\":545:684   */\n      swap3\n      swap2\n      pop\n      pop\n      jump\t// out\n        /* \"#utility.yul\":690:1019   */\n    tag_8:\n        /* \"#utility.yul\":749:755   */\n      0x00\n        /* \"#utility.yul\":798:800   */\n      0x20\n        /* \"#utility.yul\":786:795   */\n      dup3\n        /* \"#utility.yul\":777:784   */\n      dup5\n        /* \"#utility.yul\":773:796   */\n      sub\n        /* \"#utility.yul\":769:801   */\n      slt\n        /* \"#utility.yul\":766:885   */\n      iszero\n      tag_105\n      jumpi\n        /* \"#utility.yul\":804:883   */\n      tag_106\n      tag_49\n      jump\t// in\n    tag_106:\n        /* \"#utility.yul\":766:885   */\n    tag_105:\n        /* \"#utility.yul\":924:925   */\n      0x00\n        /* \"#utility.yul\":949:1002   */\n      tag_107\n        /* \"#utility.yul\":994:1001   */\n      dup5\n        /* \"#utility.yul\":985:991   */\n      dup3\n        /* \"#utility.yul\":974:983   */\n      dup6\n        /* \"#utility.yul\":970:992   */\n      add\n        /* \"#utility.yul\":949:1002   */\n      tag_53\n      jump\t// in\n    tag_107:\n        /* \"#utility.yul\":939:1002   */\n      swap2\n      pop\n        /* \"#utility.yul\":895:1012   */\n      pop\n        /* \"#utility.yul\":690:1019   */\n      swap3\n      swap2\n      pop\n      pop\n      jump\t// out\n        /* \"#utility.yul\":1025:1124   */\n    tag_54:\n        /* \"#utility.yul\":1077:1083   */\n      0x00\n        /* \"#utility.yul\":1111:1116   */\n      dup2\n        /* \"#utility.yul\":1105:1117   */\n      mload\n        /* \"#utility.yul\":1095:1117   */\n      swap1\n      pop\n        /* \"#utility.yul\":1025:1124   */\n      swap2\n      swap1\n      pop\n      jump\t// out\n        /* \"#utility.yul\":1130:1299   */\n    tag_55:\n        /* \"#utility.yul\":1214:1225   */\n      0x00\n        /* \"#utility.yul\":1248:1254   */\n      dup3\n        /* \"#utility.yul\":1243:1246   */\n      dup3\n        /* \"#utility.yul\":1236:1255   */\n      mstore\n        /* \"#utility.yul\":1288:1292   */\n      0x20\n        /* \"#utility.yul\":1283:1286   */\n      dup3\n        /* \"#utility.yul\":1279:1293   */\n      add\n        /* \"#utility.yul\":1264:1293   */\n      swap1\n      pop\n        /* \"#utility.yul\":1130:1299   */\n      swap3\n      swap2\n      pop\n      pop\n      jump\t// out\n        /* \"#utility.yul\":1305:1551   */\n    tag_56:\n        /* \"#utility.yul\":1386:1387   */\n      0x00\n        /* \"#utility.yul\":1396:1509   */\n    tag_111:\n        /* \"#utility.yul\":1410:1416   */\n      dup4\n        /* \"#utility.yul\":1407:1408   */\n      dup2\n        /* \"#utility.yul\":1404:1417   */\n      lt\n        /* \"#utility.yul\":1396:1509   */\n      iszero\n      tag_113\n      jumpi\n        /* \"#utility.yul\":1495:1496   */\n      dup1\n        /* \"#utility.yul\":1490:1493   */\n      dup3\n        /* \"#utility.yul\":1486:1497   */\n      add\n        /* \"#utility.yul\":1480:1498   */\n      mload\n        /* \"#utility.yul\":1476:1477   */\n      dup2\n        /* \"#utility.yul\":1471:1474   */\n      dup5\n        /* \"#utility.yul\":1467:1478   */\n      add\n        /* \"#utility.yul\":1460:1499   */\n      mstore\n        /* \"#utility.yul\":1432:1434   */\n      0x20\n        /* \"#utility.yul\":1429:1430   */\n      dup2\n        /* \"#utility.yul\":1425:1435   */\n      add\n        /* \"#utility.yul\":1420:1435   */\n      swap1\n      pop\n        /* \"#utility.yul\":1396:1509   */\n      jump(tag_111)\n    tag_113:\n        /* \"#utility.yul\":1543:1544   */\n      0x00\n        /* \"#utility.yul\":1534:1540   */\n      dup5\n        /* \"#utility.yul\":1529:1532   */\n      dup5\n        /* \"#utility.yul\":1525:1541   */\n      add\n        /* \"#utility.yul\":1518:1545   */\n      mstore\n        /* \"#utility.yul\":1367:1551   */\n      pop\n        /* \"#utility.yul\":1305:1551   */\n      pop\n      pop\n      pop\n      jump\t// out\n        /* \"#utility.yul\":1557:1659   */\n    tag_57:\n        /* \"#utility.yul\":1598:1604   */\n      0x00\n        /* \"#utility.yul\":1649:1651   */\n      0x1f\n        /* \"#utility.yul\":1645:1652   */\n      not\n        /* \"#utility.yul\":1640:1642   */\n      0x1f\n        /* \"#utility.yul\":1633:1638   */\n      dup4\n        /* \"#utility.yul\":1629:1643   */\n      add\n        /* \"#utility.yul\":1625:1653   */\n      and\n        /* \"#utility.yul\":1615:1653   */\n      swap1\n      pop\n        /* \"#utility.yul\":1557:1659   */\n      swap2\n      swap1\n      pop\n      jump\t// out\n        /* \"#utility.yul\":1665:2042   */\n    tag_58:\n        /* \"#utility.yul\":1753:1756   */\n      0x00\n        /* \"#utility.yul\":1781:1820   */\n      tag_116\n        /* \"#utility.yul\":1814:1819   */\n      dup3\n        /* \"#utility.yul\":1781:1820   */\n      tag_54\n      jump\t// in\n    tag_116:\n        /* \"#utility.yul\":1836:1907   */\n      tag_117\n        /* \"#utility.yul\":1900:1906   */\n      dup2\n        /* \"#utility.yul\":1895:1898   */\n      dup6\n        /* \"#utility.yul\":1836:1907   */\n      tag_55\n      jump\t// in\n    tag_117:\n        /* \"#utility.yul\":1829:1907   */\n      swap4\n      pop\n        /* \"#utility.yul\":1916:1981   */\n      tag_118\n        /* \"#utility.yul\":1974:1980   */\n      dup2\n        /* \"#utility.yul\":1969:1972   */\n      dup6\n        /* \"#utility.yul\":1962:1966   */\n      0x20\n        /* \"#utility.yul\":1955:1960   */\n      dup7\n        /* \"#utility.yul\":1951:1967   */\n      add\n        /* \"#utility.yul\":1916:1981   */\n      tag_56\n      jump\t// in\n    tag_118:\n        /* \"#utility.yul\":2006:2035   */\n      tag_119\n        /* \"#utility.yul\":2028:2034   */\n      dup2\n        /* \"#utility.yul\":2006:2035   */\n      tag_57\n      jump\t// in\n    tag_119:\n        /* \"#utility.yul\":2001:2004   */\n      dup5\n        /* \"#utility.yul\":1997:2036   */\n      add\n        /* \"#utility.yul\":1990:2036   */\n      swap2\n      pop\n        /* \"#utility.yul\":1757:2042   */\n      pop\n        /* \"#utility.yul\":1665:2042   */\n      swap3\n      swap2\n      pop\n      pop\n      jump\t// out\n        /* \"#utility.yul\":2048:2361   */\n    tag_11:\n        /* \"#utility.yul\":2161:2165   */\n      0x00\n        /* \"#utility.yul\":2199:2201   */\n      0x20\n        /* \"#utility.yul\":2188:2197   */\n      dup3\n        /* \"#utility.yul\":2184:2202   */\n      add\n        /* \"#utility.yul\":2176:2202   */\n      swap1\n      pop\n        /* \"#utility.yul\":2248:2257   */\n      dup2\n        /* \"#utility.yul\":2242:2246   */\n      dup2\n        /* \"#utility.yul\":2238:2258   */\n      sub\n        /* \"#utility.yul\":2234:2235   */\n      0x00\n        /* \"#utility.yul\":2223:2232   */\n      dup4\n        /* \"#utility.yul\":2219:2236   */\n      add\n        /* \"#utility.yul\":2212:2259   */\n      mstore\n        /* \"#utility.yul\":2276:2354   */\n      tag_121\n        /* \"#utility.yul\":2349:2353   */\n      dup2\n        /* \"#utility.yul\":2340:2346   */\n      dup5\n        /* \"#utility.yul\":2276:2354   */\n      tag_58\n      jump\t// in\n    tag_121:\n        /* \"#utility.yul\":2268:2354   */\n      swap1\n      pop\n        /* \"#utility.yul\":2048:2361   */\n      swap3\n      swap2\n      pop\n      pop\n      jump\t// out\n        /* \"#utility.yul\":2367:2484   */\n    tag_59:\n        /* \"#utility.yul\":2476:2477   */\n      0x00\n        /* \"#utility.yul\":2473:2474   */\n      dup1\n        /* \"#utility.yul\":2466:2478   */\n      revert\n        /* \"#utility.yul\":2490:2607   */\n    tag_60:\n        /* \"#utility.yul\":2599:2600   */\n      0x00\n        /* \"#utility.yul\":2596:2597   */\n      dup1\n        /* \"#utility.yul\":2589:2601   */\n      revert\n        /* \"#utility.yul\":2613:2793   */\n    tag_61:\n        /* \"#utility.yul\":2661:2738   */\n      0x4e487b7100000000000000000000000000000000000000000000000000000000\n        /* \"#utility.yul\":2658:2659   */\n      0x00\n        /* \"#utility.yul\":2651:2739   */\n      mstore\n        /* \"#utility.yul\":2758:2762   */\n      0x41\n        /* \"#utility.yul\":2755:2756   */\n      0x04\n        /* \"#utility.yul\":2748:2763   */\n      mstore\n        /* \"#utility.yul\":2782:2786   */\n      0x24\n        /* \"#utility.yul\":2779:2780   */\n      0x00\n        /* \"#utility.yul\":2772:2787   */\n      revert\n        /* \"#utility.yul\":2799:3080   */\n    tag_62:\n        /* \"#utility.yul\":2882:2909   */\n      tag_126\n        /* \"#utility.yul\":2904:2908   */\n      dup3\n        /* \"#utility.yul\":2882:2909   */\n      tag_57\n      jump\t// in\n    tag_126:\n        /* \"#utility.yul\":2874:2880   */\n      dup2\n        /* \"#utility.yul\":2870:2910   */\n      add\n        /* \"#utility.yul\":3012:3018   */\n      dup2\n        /* \"#utility.yul\":3000:3010   */\n      dup2\n        /* \"#utility.yul\":2997:3019   */\n      lt\n        /* \"#utility.yul\":2976:2994   */\n      0xffffffffffffffff\n        /* \"#utility.yul\":2964:2974   */\n      dup3\n        /* \"#utility.yul\":2961:2995   */\n      gt\n        /* \"#utility.yul\":2958:3020   */\n      or\n        /* \"#utility.yul\":2955:3043   */\n      iszero\n      tag_127\n      jumpi\n        /* \"#utility.yul\":3023:3041   */\n      tag_128\n      tag_61\n      jump\t// in\n    tag_128:\n        /* \"#utility.yul\":2955:3043   */\n    tag_127:\n        /* \"#utility.yul\":3063:3073   */\n      dup1\n        /* \"#utility.yul\":3059:3061   */\n      0x40\n        /* \"#utility.yul\":3052:3074   */\n      mstore\n        /* \"#utility.yul\":2842:3080   */\n      pop\n        /* \"#utility.yul\":2799:3080   */\n      pop\n      pop\n      jump\t// out\n        /* \"#utility.yul\":3086:3215   */\n    tag_63:\n        /* \"#utility.yul\":3120:3126   */\n      0x00\n        /* \"#utility.yul\":3147:3167   */\n      tag_130\n      tag_48\n      jump\t// in\n    tag_130:\n        /* \"#utility.yul\":3137:3167   */\n      swap1\n      pop\n        /* \"#utility.yul\":3176:3209   */\n      tag_131\n        /* \"#utility.yul\":3204:3208   */\n      dup3\n        /* \"#utility.yul\":3196:3202   */\n      dup3\n        /* \"#utility.yul\":3176:3209   */\n      tag_62\n      jump\t// in\n    tag_131:\n        /* \"#utility.yul\":3086:3215   */\n      swap2\n      swap1\n      pop\n      jump\t// out\n        /* \"#utility.yul\":3221:3529   */\n    tag_64:\n        /* \"#utility.yul\":3283:3287   */\n      0x00\n        /* \"#utility.yul\":3373:3391   */\n      0xffffffffffffffff\n        /* \"#utility.yul\":3365:3371   */\n      dup3\n        /* \"#utility.yul\":3362:3392   */\n      gt\n        /* \"#utility.yul\":3359:3415   */\n      iszero\n      tag_133\n      jumpi\n        /* \"#utility.yul\":3395:3413   */\n      tag_134\n      tag_61\n      jump\t// in\n    tag_134:\n        /* \"#utility.yul\":3359:3415   */\n    tag_133:\n        /* \"#utility.yul\":3433:3462   */\n      tag_135\n        /* \"#utility.yul\":3455:3461   */\n      dup3\n        /* \"#utility.yul\":3433:3462   */\n      tag_57\n      jump\t// in\n    tag_135:\n        /* \"#utility.yul\":3425:3462   */\n      swap1\n      pop\n        /* \"#utility.yul\":3517:3521   */\n      0x20\n        /* \"#utility.yul\":3511:3515   */\n      dup2\n        /* \"#utility.yul\":3507:3522   */\n      add\n        /* \"#utility.yul\":3499:3522   */\n      swap1\n      pop\n        /* \"#utility.yul\":3221:3529   */\n      swap2\n      swap1\n      pop\n      jump\t// out\n        /* \"#utility.yul\":3535:3681   */\n    tag_65:\n        /* \"#utility.yul\":3632:3638   */\n      dup3\n        /* \"#utility.yul\":3627:3630   */\n      dup2\n        /* \"#utility.yul\":3622:3625   */\n      dup4\n        /* \"#utility.yul\":3609:3639   */\n      calldatacopy\n        /* \"#utility.yul\":3673:3674   */\n      0x00\n        /* \"#utility.yul\":3664:3670   */\n      dup4\n        /* \"#utility.yul\":3659:3662   */\n      dup4\n        /* \"#utility.yul\":3655:3671   */\n      add\n        /* \"#utility.yul\":3648:3675   */\n      mstore\n        /* \"#utility.yul\":3535:3681   */\n      pop\n      pop\n      pop\n      jump\t// out\n        /* \"#utility.yul\":3687:4112   */\n    tag_66:\n        /* \"#utility.yul\":3765:3770   */\n      0x00\n        /* \"#utility.yul\":3790:3856   */\n      tag_138\n        /* \"#utility.yul\":3806:3855   */\n      tag_139\n        /* \"#utility.yul\":3848:3854   */\n      dup5\n        /* \"#utility.yul\":3806:3855   */\n      tag_64\n      jump\t// in\n    tag_139:\n        /* \"#utility.yul\":3790:3856   */\n      tag_63\n      jump\t// in\n    tag_138:\n        /* \"#utility.yul\":3781:3856   */\n      swap1\n      pop\n        /* \"#utility.yul\":3879:3885   */\n      dup3\n        /* \"#utility.yul\":3872:3877   */\n      dup2\n        /* \"#utility.yul\":3865:3886   */\n      mstore\n        /* \"#utility.yul\":3917:3921   */\n      0x20\n        /* \"#utility.yul\":3910:3915   */\n      dup2\n        /* \"#utility.yul\":3906:3922   */\n      add\n        /* \"#utility.yul\":3955:3958   */\n      dup5\n        /* \"#utility.yul\":3946:3952   */\n      dup5\n        /* \"#utility.yul\":3941:3944   */\n      dup5\n        /* \"#utility.yul\":3937:3953   */\n      add\n        /* \"#utility.yul\":3934:3959   */\n      gt\n        /* \"#utility.yul\":3931:4043   */\n      iszero\n      tag_140\n      jumpi\n        /* \"#utility.yul\":3962:4041   */\n      tag_141\n      tag_60\n      jump\t// in\n    tag_141:\n        /* \"#utility.yul\":3931:4043   */\n    tag_140:\n        /* \"#utility.yul\":4052:4106   */\n      tag_142\n        /* \"#utility.yul\":4099:4105   */\n      dup5\n        /* \"#utility.yul\":4094:4097   */\n      dup3\n        /* \"#utility.yul\":4089:4092   */\n      dup6\n        /* \"#utility.yul\":4052:4106   */\n      tag_65\n      jump\t// in\n    tag_142:\n        /* \"#utility.yul\":3771:4112   */\n      pop\n        /* \"#utility.yul\":3687:4112   */\n      swap4\n      swap3\n      pop\n      pop\n      pop\n      jump\t// out\n        /* \"#utility.yul\":4132:4472   */\n    tag_67:\n        /* \"#utility.yul\":4188:4193   */\n      0x00\n        /* \"#utility.yul\":4237:4240   */\n      dup3\n        /* \"#utility.yul\":4230:4234   */\n      0x1f\n        /* \"#utility.yul\":4222:4228   */\n      dup4\n        /* \"#utility.yul\":4218:4235   */\n      add\n        /* \"#utility.yul\":4214:4241   */\n      slt\n        /* \"#utility.yul\":4204:4326   */\n      tag_144\n      jumpi\n        /* \"#utility.yul\":4245:4324   */\n      tag_145\n      tag_59\n      jump\t// in\n    tag_145:\n        /* \"#utility.yul\":4204:4326   */\n    tag_144:\n        /* \"#utility.yul\":4362:4368   */\n      dup2\n        /* \"#utility.yul\":4349:4369   */\n      calldataload\n        /* \"#utility.yul\":4387:4466   */\n      tag_146\n        /* \"#utility.yul\":4462:4465   */\n      dup5\n        /* \"#utility.yul\":4454:4460   */\n      dup3\n        /* \"#utility.yul\":4447:4451   */\n      0x20\n        /* \"#utility.yul\":4439:4445   */\n      dup7\n        /* \"#utility.yul\":4435:4452   */\n      add\n        /* \"#utility.yul\":4387:4466   */\n      tag_66\n      jump\t// in\n    tag_146:\n        /* \"#utility.yul\":4378:4466   */\n      swap2\n      pop\n        /* \"#utility.yul\":4194:4472   */\n      pop\n        /* \"#utility.yul\":4132:4472   */\n      swap3\n      swap2\n      pop\n      pop\n      jump\t// out\n        /* \"#utility.yul\":4478:5277   */\n    tag_14:\n        /* \"#utility.yul\":4565:4571   */\n      0x00\n        /* \"#utility.yul\":4573:4579   */\n      dup1\n        /* \"#utility.yul\":4581:4587   */\n      0x00\n        /* \"#utility.yul\":4630:4632   */\n      0x60\n        /* \"#utility.yul\":4618:4627   */\n      dup5\n        /* \"#utility.yul\":4609:4616   */\n      dup7\n        /* \"#utility.yul\":4605:4628   */\n      sub\n        /* \"#utility.yul\":4601:4633   */\n      slt\n        /* \"#utility.yul\":4598:4717   */\n      iszero\n      tag_148\n      jumpi\n        /* \"#utility.yul\":4636:4715   */\n      tag_149\n      tag_49\n      jump\t// in\n    tag_149:\n        /* \"#utility.yul\":4598:4717   */\n    tag_148:\n        /* \"#utility.yul\":4784:4785   */\n      0x00\n        /* \"#utility.yul\":4773:4782   */\n      dup5\n        /* \"#utility.yul\":4769:4786   */\n      add\n        /* \"#utility.yul\":4756:4787   */\n      calldataload\n        /* \"#utility.yul\":4814:4832   */\n      0xffffffffffffffff\n        /* \"#utility.yul\":4806:4812   */\n      dup2\n        /* \"#utility.yul\":4803:4833   */\n      gt\n        /* \"#utility.yul\":4800:4917   */\n      iszero\n      tag_150\n      jumpi\n        /* \"#utility.yul\":4836:4915   */\n      tag_151\n      tag_50\n      jump\t// in\n    tag_151:\n        /* \"#utility.yul\":4800:4917   */\n    tag_150:\n        /* \"#utility.yul\":4941:5004   */\n      tag_152\n        /* \"#utility.yul\":4996:5003   */\n      dup7\n        /* \"#utility.yul\":4987:4993   */\n      dup3\n        /* \"#utility.yul\":4976:4985   */\n      dup8\n        /* \"#utility.yul\":4972:4994   */\n      add\n        /* \"#utility.yul\":4941:5004   */\n      tag_67\n      jump\t// in\n    tag_152:\n        /* \"#utility.yul\":4931:5004   */\n      swap4\n      pop\n        /* \"#utility.yul\":4727:5014   */\n      pop\n        /* \"#utility.yul\":5053:5055   */\n      0x20\n        /* \"#utility.yul\":5079:5132   */\n      tag_153\n        /* \"#utility.yul\":5124:5131   */\n      dup7\n        /* \"#utility.yul\":5115:5121   */\n      dup3\n        /* \"#utility.yul\":5104:5113   */\n      dup8\n        /* \"#utility.yul\":5100:5122   */\n      add\n        /* \"#utility.yul\":5079:5132   */\n      tag_53\n      jump\t// in\n    tag_153:\n        /* \"#utility.yul\":5069:5132   */\n      swap3\n      pop\n        /* \"#utility.yul\":5024:5142   */\n      pop\n        /* \"#utility.yul\":5181:5183   */\n      0x40\n        /* \"#utility.yul\":5207:5260   */\n      tag_154\n        /* \"#utility.yul\":5252:5259   */\n      dup7\n        /* \"#utility.yul\":5243:5249   */\n      dup3\n        /* \"#utility.yul\":5232:5241   */\n      dup8\n        /* \"#utility.yul\":5228:5250   */\n      add\n        /* \"#utility.yul\":5207:5260   */\n      tag_53\n      jump\t// in\n    tag_154:\n        /* \"#utility.yul\":5197:5260   */\n      swap2\n      pop\n        /* \"#utility.yul\":5152:5270   */\n      pop\n        /* \"#utility.yul\":4478:5277   */\n      swap3\n      pop\n      swap3\n      pop\n      swap3\n      jump\t// out\n        /* \"#utility.yul\":5283:5420   */\n    tag_68:\n        /* \"#utility.yul\":5373:5379   */\n      0x00\n        /* \"#utility.yul\":5407:5412   */\n      dup2\n        /* \"#utility.yul\":5401:5413   */\n      mload\n        /* \"#utility.yul\":5391:5413   */\n      swap1\n      pop\n        /* \"#utility.yul\":5283:5420   */\n      swap2\n      swap1\n      pop\n      jump\t// out\n        /* \"#utility.yul\":5426:5633   */\n    tag_69:\n        /* \"#utility.yul\":5548:5559   */\n      0x00\n        /* \"#utility.yul\":5582:5588   */\n      dup3\n        /* \"#utility.yul\":5577:5580   */\n      dup3\n        /* \"#utility.yul\":5570:5589   */\n      mstore\n        /* \"#utility.yul\":5622:5626   */\n      0x20\n        /* \"#utility.yul\":5617:5620   */\n      dup3\n        /* \"#utility.yul\":5613:5627   */\n      add\n        /* \"#utility.yul\":5598:5627   */\n      swap1\n      pop\n        /* \"#utility.yul\":5426:5633   */\n      swap3\n      swap2\n      pop\n      pop\n      jump\t// out\n        /* \"#utility.yul\":5639:5794   */\n    tag_70:\n        /* \"#utility.yul\":5729:5733   */\n      0x00\n        /* \"#utility.yul\":5752:5755   */\n      dup2\n        /* \"#utility.yul\":5744:5755   */\n      swap1\n      pop\n        /* \"#utility.yul\":5782:5786   */\n      0x20\n        /* \"#utility.yul\":5777:5780   */\n      dup3\n        /* \"#utility.yul\":5773:5787   */\n      add\n        /* \"#utility.yul\":5765:5787   */\n      swap1\n      pop\n        /* \"#utility.yul\":5639:5794   */\n      swap2\n      swap1\n      pop\n      jump\t// out\n        /* \"#utility.yul\":5800:5959   */\n    tag_71:\n        /* \"#utility.yul\":5874:5885   */\n      0x00\n        /* \"#utility.yul\":5908:5914   */\n      dup3\n        /* \"#utility.yul\":5903:5906   */\n      dup3\n        /* \"#utility.yul\":5896:5915   */\n      mstore\n        /* \"#utility.yul\":5948:5952   */\n      0x20\n        /* \"#utility.yul\":5943:5946   */\n      dup3\n        /* \"#utility.yul\":5939:5953   */\n      add\n        /* \"#utility.yul\":5924:5953   */\n      swap1\n      pop\n        /* \"#utility.yul\":5800:5959   */\n      swap3\n      swap2\n      pop\n      pop\n      jump\t// out\n        /* \"#utility.yul\":5965:6322   */\n    tag_72:\n        /* \"#utility.yul\":6043:6046   */\n      0x00\n        /* \"#utility.yul\":6071:6110   */\n      tag_160\n        /* \"#utility.yul\":6104:6109   */\n      dup3\n        /* \"#utility.yul\":6071:6110   */\n      tag_54\n      jump\t// in\n    tag_160:\n        /* \"#utility.yul\":6126:6187   */\n      tag_161\n        /* \"#utility.yul\":6180:6186   */\n      dup2\n        /* \"#utility.yul\":6175:6178   */\n      dup6\n        /* \"#utility.yul\":6126:6187   */\n      tag_71\n      jump\t// in\n    tag_161:\n        /* \"#utility.yul\":6119:6187   */\n      swap4\n      pop\n        /* \"#utility.yul\":6196:6261   */\n      tag_162\n        /* \"#utility.yul\":6254:6260   */\n      dup2\n        /* \"#utility.yul\":6249:6252   */\n      dup6\n        /* \"#utility.yul\":6242:6246   */\n      0x20\n        /* \"#utility.yul\":6235:6240   */\n      dup7\n        /* \"#utility.yul\":6231:6247   */\n      add\n        /* \"#utility.yul\":6196:6261   */\n      tag_56\n      jump\t// in\n    tag_162:\n        /* \"#utility.yul\":6286:6315   */\n      tag_163\n        /* \"#utility.yul\":6308:6314   */\n      dup2\n        /* \"#utility.yul\":6286:6315   */\n      tag_57\n      jump\t// in\n    tag_163:\n        /* \"#utility.yul\":6281:6284   */\n      dup5\n        /* \"#utility.yul\":6277:6316   */\n      add\n        /* \"#utility.yul\":6270:6316   */\n      swap2\n      pop\n        /* \"#utility.yul\":6047:6322   */\n      pop\n        /* \"#utility.yul\":5965:6322   */\n      swap3\n      swap2\n      pop\n      pop\n      jump\t// out\n        /* \"#utility.yul\":6328:6436   */\n    tag_73:\n        /* \"#utility.yul\":6405:6429   */\n      tag_165\n        /* \"#utility.yul\":6423:6428   */\n      dup2\n        /* \"#utility.yul\":6405:6429   */\n      tag_51\n      jump\t// in\n    tag_165:\n        /* \"#utility.yul\":6400:6403   */\n      dup3\n        /* \"#utility.yul\":6393:6430   */\n      mstore\n        /* \"#utility.yul\":6328:6436   */\n      pop\n      pop\n      jump\t// out\n        /* \"#utility.yul\":6490:7505   */\n    tag_74:\n        /* \"#utility.yul\":6595:6598   */\n      0x00\n        /* \"#utility.yul\":6631:6635   */\n      0x80\n        /* \"#utility.yul\":6626:6629   */\n      dup4\n        /* \"#utility.yul\":6622:6636   */\n      add\n        /* \"#utility.yul\":6718:6722   */\n      0x00\n        /* \"#utility.yul\":6711:6716   */\n      dup4\n        /* \"#utility.yul\":6707:6723   */\n      add\n        /* \"#utility.yul\":6701:6724   */\n      mload\n        /* \"#utility.yul\":6771:6774   */\n      dup5\n        /* \"#utility.yul\":6765:6769   */\n      dup3\n        /* \"#utility.yul\":6761:6775   */\n      sub\n        /* \"#utility.yul\":6754:6758   */\n      0x00\n        /* \"#utility.yul\":6749:6752   */\n      dup7\n        /* \"#utility.yul\":6745:6759   */\n      add\n        /* \"#utility.yul\":6738:6776   */\n      mstore\n        /* \"#utility.yul\":6797:6870   */\n      tag_167\n        /* \"#utility.yul\":6865:6869   */\n      dup3\n        /* \"#utility.yul\":6851:6863   */\n      dup3\n        /* \"#utility.yul\":6797:6870   */\n      tag_72\n      jump\t// in\n    tag_167:\n        /* \"#utility.yul\":6789:6870   */\n      swap2\n      pop\n        /* \"#utility.yul\":6646:6881   */\n      pop\n        /* \"#utility.yul\":6965:6969   */\n      0x20\n        /* \"#utility.yul\":6958:6963   */\n      dup4\n        /* \"#utility.yul\":6954:6970   */\n      add\n        /* \"#utility.yul\":6948:6971   */\n      mload\n        /* \"#utility.yul\":6984:7047   */\n      tag_168\n        /* \"#utility.yul\":7041:7045   */\n      0x20\n        /* \"#utility.yul\":7036:7039   */\n      dup7\n        /* \"#utility.yul\":7032:7046   */\n      add\n        /* \"#utility.yul\":7018:7030   */\n      dup3\n        /* \"#utility.yul\":6984:7047   */\n      tag_73\n      jump\t// in\n    tag_168:\n        /* \"#utility.yul\":6891:7057   */\n      pop\n        /* \"#utility.yul\":7140:7144   */\n      0x40\n        /* \"#utility.yul\":7133:7138   */\n      dup4\n        /* \"#utility.yul\":7129:7145   */\n      add\n        /* \"#utility.yul\":7123:7146   */\n      mload\n        /* \"#utility.yul\":7159:7222   */\n      tag_169\n        /* \"#utility.yul\":7216:7220   */\n      0x40\n        /* \"#utility.yul\":7211:7214   */\n      dup7\n        /* \"#utility.yul\":7207:7221   */\n      add\n        /* \"#utility.yul\":7193:7205   */\n      dup3\n        /* \"#utility.yul\":7159:7222   */\n      tag_73\n      jump\t// in\n    tag_169:\n        /* \"#utility.yul\":7067:7232   */\n      pop\n        /* \"#utility.yul\":7315:7319   */\n      0x60\n        /* \"#utility.yul\":7308:7313   */\n      dup4\n        /* \"#utility.yul\":7304:7320   */\n      add\n        /* \"#utility.yul\":7298:7321   */\n      mload\n        /* \"#utility.yul\":7368:7371   */\n      dup5\n        /* \"#utility.yul\":7362:7366   */\n      dup3\n        /* \"#utility.yul\":7358:7372   */\n      sub\n        /* \"#utility.yul\":7351:7355   */\n      0x60\n        /* \"#utility.yul\":7346:7349   */\n      dup7\n        /* \"#utility.yul\":7342:7356   */\n      add\n        /* \"#utility.yul\":7335:7373   */\n      mstore\n        /* \"#utility.yul\":7394:7467   */\n      tag_170\n        /* \"#utility.yul\":7462:7466   */\n      dup3\n        /* \"#utility.yul\":7448:7460   */\n      dup3\n        /* \"#utility.yul\":7394:7467   */\n      tag_72\n      jump\t// in\n    tag_170:\n        /* \"#utility.yul\":7386:7467   */\n      swap2\n      pop\n        /* \"#utility.yul\":7242:7478   */\n      pop\n        /* \"#utility.yul\":7495:7499   */\n      dup1\n        /* \"#utility.yul\":7488:7499   */\n      swap2\n      pop\n        /* \"#utility.yul\":6600:7505   */\n      pop\n        /* \"#utility.yul\":6490:7505   */\n      swap3\n      swap2\n      pop\n      pop\n      jump\t// out\n        /* \"#utility.yul\":7511:7759   */\n    tag_75:\n        /* \"#utility.yul\":7626:7636   */\n      0x00\n        /* \"#utility.yul\":7661:7753   */\n      tag_172\n        /* \"#utility.yul\":7749:7752   */\n      dup4\n        /* \"#utility.yul\":7741:7747   */\n      dup4\n        /* \"#utility.yul\":7661:7753   */\n      tag_74\n      jump\t// in\n    tag_172:\n        /* \"#utility.yul\":7647:7753   */\n      swap1\n      pop\n        /* \"#utility.yul\":7511:7759   */\n      swap3\n      swap2\n      pop\n      pop\n      jump\t// out\n        /* \"#utility.yul\":7765:7901   */\n    tag_76:\n        /* \"#utility.yul\":7858:7862   */\n      0x00\n        /* \"#utility.yul\":7890:7894   */\n      0x20\n        /* \"#utility.yul\":7885:7888   */\n      dup3\n        /* \"#utility.yul\":7881:7895   */\n      add\n        /* \"#utility.yul\":7873:7895   */\n      swap1\n      pop\n        /* \"#utility.yul\":7765:7901   */\n      swap2\n      swap1\n      pop\n      jump\t// out\n        /* \"#utility.yul\":7959:9054   */\n    tag_77:\n        /* \"#utility.yul\":8124:8127   */\n      0x00\n        /* \"#utility.yul\":8153:8230   */\n      tag_175\n        /* \"#utility.yul\":8224:8229   */\n      dup3\n        /* \"#utility.yul\":8153:8230   */\n      tag_68\n      jump\t// in\n    tag_175:\n        /* \"#utility.yul\":8246:8355   */\n      tag_176\n        /* \"#utility.yul\":8348:8354   */\n      dup2\n        /* \"#utility.yul\":8343:8346   */\n      dup6\n        /* \"#utility.yul\":8246:8355   */\n      tag_69\n      jump\t// in\n    tag_176:\n        /* \"#utility.yul\":8239:8355   */\n      swap4\n      pop\n        /* \"#utility.yul\":8381:8384   */\n      dup4\n        /* \"#utility.yul\":8426:8430   */\n      0x20\n        /* \"#utility.yul\":8418:8424   */\n      dup3\n        /* \"#utility.yul\":8414:8431   */\n      mul\n        /* \"#utility.yul\":8409:8412   */\n      dup6\n        /* \"#utility.yul\":8405:8432   */\n      add\n        /* \"#utility.yul\":8456:8535   */\n      tag_177\n        /* \"#utility.yul\":8529:8534   */\n      dup6\n        /* \"#utility.yul\":8456:8535   */\n      tag_70\n      jump\t// in\n    tag_177:\n        /* \"#utility.yul\":8558:8565   */\n      dup1\n        /* \"#utility.yul\":8589:8590   */\n      0x00\n        /* \"#utility.yul\":8574:9009   */\n    tag_178:\n        /* \"#utility.yul\":8599:8605   */\n      dup6\n        /* \"#utility.yul\":8596:8597   */\n      dup2\n        /* \"#utility.yul\":8593:8606   */\n      lt\n        /* \"#utility.yul\":8574:9009   */\n      iszero\n      tag_180\n      jumpi\n        /* \"#utility.yul\":8670:8679   */\n      dup5\n        /* \"#utility.yul\":8664:8668   */\n      dup5\n        /* \"#utility.yul\":8660:8680   */\n      sub\n        /* \"#utility.yul\":8655:8658   */\n      dup10\n        /* \"#utility.yul\":8648:8681   */\n      mstore\n        /* \"#utility.yul\":8721:8727   */\n      dup2\n        /* \"#utility.yul\":8715:8728   */\n      mload\n        /* \"#utility.yul\":8749:8859   */\n      tag_181\n        /* \"#utility.yul\":8854:8858   */\n      dup6\n        /* \"#utility.yul\":8839:8852   */\n      dup3\n        /* \"#utility.yul\":8749:8859   */\n      tag_75\n      jump\t// in\n    tag_181:\n        /* \"#utility.yul\":8741:8859   */\n      swap5\n      pop\n        /* \"#utility.yul\":8882:8965   */\n      tag_182\n        /* \"#utility.yul\":8958:8964   */\n      dup4\n        /* \"#utility.yul\":8882:8965   */\n      tag_76\n      jump\t// in\n    tag_182:\n        /* \"#utility.yul\":8872:8965   */\n      swap3\n      pop\n        /* \"#utility.yul\":8994:8998   */\n      0x20\n        /* \"#utility.yul\":8989:8992   */\n      dup11\n        /* \"#utility.yul\":8985:8999   */\n      add\n        /* \"#utility.yul\":8978:8999   */\n      swap10\n      pop\n        /* \"#utility.yul\":8634:9009   */\n      pop\n        /* \"#utility.yul\":8621:8622   */\n      0x01\n        /* \"#utility.yul\":8618:8619   */\n      dup2\n        /* \"#utility.yul\":8614:8623   */\n      add\n        /* \"#utility.yul\":8609:8623   */\n      swap1\n      pop\n        /* \"#utility.yul\":8574:9009   */\n      jump(tag_178)\n    tag_180:\n        /* \"#utility.yul\":8578:8592   */\n      pop\n        /* \"#utility.yul\":9025:9029   */\n      dup3\n        /* \"#utility.yul\":9018:9029   */\n      swap8\n      pop\n        /* \"#utility.yul\":9045:9048   */\n      dup8\n        /* \"#utility.yul\":9038:9048   */\n      swap6\n      pop\n        /* \"#utility.yul\":8129:9054   */\n      pop\n      pop\n      pop\n      pop\n      pop\n        /* \"#utility.yul\":7959:9054   */\n      swap3\n      swap2\n      pop\n      pop\n      jump\t// out\n        /* \"#utility.yul\":9060:9525   */\n    tag_19:\n        /* \"#utility.yul\":9249:9253   */\n      0x00\n        /* \"#utility.yul\":9287:9289   */\n      0x20\n        /* \"#utility.yul\":9276:9285   */\n      dup3\n        /* \"#utility.yul\":9272:9290   */\n      add\n        /* \"#utility.yul\":9264:9290   */\n      swap1\n      pop\n        /* \"#utility.yul\":9336:9345   */\n      dup2\n        /* \"#utility.yul\":9330:9334   */\n      dup2\n        /* \"#utility.yul\":9326:9346   */\n      sub\n        /* \"#utility.yul\":9322:9323   */\n      0x00\n        /* \"#utility.yul\":9311:9320   */\n      dup4\n        /* \"#utility.yul\":9307:9324   */\n      add\n        /* \"#utility.yul\":9300:9347   */\n      mstore\n        /* \"#utility.yul\":9364:9518   */\n      tag_184\n        /* \"#utility.yul\":9513:9517   */\n      dup2\n        /* \"#utility.yul\":9504:9510   */\n      dup5\n        /* \"#utility.yul\":9364:9518   */\n      tag_77\n      jump\t// in\n    tag_184:\n        /* \"#utility.yul\":9356:9518   */\n      swap1\n      pop\n        /* \"#utility.yul\":9060:9525   */\n      swap3\n      swap2\n      pop\n      pop\n      jump\t// out\n        /* \"#utility.yul\":9531:9711   */\n    tag_78:\n        /* \"#utility.yul\":9579:9656   */\n      0x4e487b7100000000000000000000000000000000000000000000000000000000\n        /* \"#utility.yul\":9576:9577   */\n      0x00\n        /* \"#utility.yul\":9569:9657   */\n      mstore\n        /* \"#utility.yul\":9676:9680   */\n      0x22\n        /* \"#utility.yul\":9673:9674   */\n      0x04\n        /* \"#utility.yul\":9666:9681   */\n      mstore\n        /* \"#utility.yul\":9700:9704   */\n      0x24\n        /* \"#utility.yul\":9697:9698   */\n      0x00\n        /* \"#utility.yul\":9690:9705   */\n      revert\n        /* \"#utility.yul\":9717:10037   */\n    tag_38:\n        /* \"#utility.yul\":9761:9767   */\n      0x00\n        /* \"#utility.yul\":9798:9799   */\n      0x02\n        /* \"#utility.yul\":9792:9796   */\n      dup3\n        /* \"#utility.yul\":9788:9800   */\n      div\n        /* \"#utility.yul\":9778:9800   */\n      swap1\n      pop\n        /* \"#utility.yul\":9845:9846   */\n      0x01\n        /* \"#utility.yul\":9839:9843   */\n      dup3\n        /* \"#utility.yul\":9835:9847   */\n      and\n        /* \"#utility.yul\":9866:9884   */\n      dup1\n        /* \"#utility.yul\":9856:9937   */\n      tag_187\n      jumpi\n        /* \"#utility.yul\":9922:9926   */\n      0x7f\n        /* \"#utility.yul\":9914:9920   */\n      dup3\n        /* \"#utility.yul\":9910:9927   */\n      and\n        /* \"#utility.yul\":9900:9927   */\n      swap2\n      pop\n        /* \"#utility.yul\":9856:9937   */\n    tag_187:\n        /* \"#utility.yul\":9984:9986   */\n      0x20\n        /* \"#utility.yul\":9976:9982   */\n      dup3\n        /* \"#utility.yul\":9973:9987   */\n      lt\n        /* \"#utility.yul\":9953:9971   */\n      dup2\n        /* \"#utility.yul\":9950:9988   */\n      sub\n        /* \"#utility.yul\":9947:10031   */\n      tag_188\n      jumpi\n        /* \"#utility.yul\":10003:10021   */\n      tag_189\n      tag_78\n      jump\t// in\n    tag_189:\n        /* \"#utility.yul\":9947:10031   */\n    tag_188:\n        /* \"#utility.yul\":9768:10037   */\n      pop\n        /* \"#utility.yul\":9717:10037   */\n      swap2\n      swap1\n      pop\n      jump\t// out\n        /* \"#utility.yul\":10043:10184   */\n    tag_79:\n        /* \"#utility.yul\":10092:10096   */\n      0x00\n        /* \"#utility.yul\":10115:10118   */\n      dup2\n        /* \"#utility.yul\":10107:10118   */\n      swap1\n      pop\n        /* \"#utility.yul\":10138:10141   */\n      dup2\n        /* \"#utility.yul\":10135:10136   */\n      0x00\n        /* \"#utility.yul\":10128:10142   */\n      mstore\n        /* \"#utility.yul\":10172:10176   */\n      0x20\n        /* \"#utility.yul\":10169:10170   */\n      0x00\n        /* \"#utility.yul\":10159:10177   */\n      keccak256\n        /* \"#utility.yul\":10151:10177   */\n      swap1\n      pop\n        /* \"#utility.yul\":10043:10184   */\n      swap2\n      swap1\n      pop\n      jump\t// out\n        /* \"#utility.yul\":10190:10283   */\n    tag_80:\n        /* \"#utility.yul\":10227:10233   */\n      0x00\n        /* \"#utility.yul\":10274:10276   */\n      0x20\n        /* \"#utility.yul\":10269:10271   */\n      0x1f\n        /* \"#utility.yul\":10262:10267   */\n      dup4\n        /* \"#utility.yul\":10258:10272   */\n      add\n        /* \"#utility.yul\":10254:10277   */\n      div\n        /* \"#utility.yul\":10244:10277   */\n      swap1\n      pop\n        /* \"#utility.yul\":10190:10283   */\n      swap2\n      swap1\n      pop\n      jump\t// out\n        /* \"#utility.yul\":10289:10396   */\n    tag_81:\n        /* \"#utility.yul\":10333:10341   */\n      0x00\n        /* \"#utility.yul\":10383:10388   */\n      dup3\n        /* \"#utility.yul\":10377:10381   */\n      dup3\n        /* \"#utility.yul\":10373:10389   */\n      shl\n        /* \"#utility.yul\":10352:10389   */\n      swap1\n      pop\n        /* \"#utility.yul\":10289:10396   */\n      swap3\n      swap2\n      pop\n      pop\n      jump\t// out\n        /* \"#utility.yul\":10402:10795   */\n    tag_82:\n        /* \"#utility.yul\":10471:10477   */\n      0x00\n        /* \"#utility.yul\":10521:10522   */\n      0x08\n        /* \"#utility.yul\":10509:10519   */\n      dup4\n        /* \"#utility.yul\":10505:10523   */\n      mul\n        /* \"#utility.yul\":10544:10641   */\n      tag_194\n        /* \"#utility.yul\":10574:10640   */\n      0xffffffffffffffffffffffffffffffffffffffffffffffffffffffffffffffff\n        /* \"#utility.yul\":10563:10572   */\n      dup3\n        /* \"#utility.yul\":10544:10641   */\n      tag_81\n      jump\t// in\n    tag_194:\n        /* \"#utility.yul\":10662:10701   */\n      tag_195\n        /* \"#utility.yul\":10692:10700   */\n      dup7\n        /* \"#utility.yul\":10681:10690   */\n      dup4\n        /* \"#utility.yul\":10662:10701   */\n      tag_81\n      jump\t// in\n    tag_195:\n        /* \"#utility.yul\":10650:10701   */\n      swap6\n      pop\n        /* \"#utility.yul\":10734:10738   */\n      dup1\n        /* \"#utility.yul\":10730:10739   */\n      not\n        /* \"#utility.yul\":10723:10728   */\n      dup5\n        /* \"#utility.yul\":10719:10740   */\n      and\n        /* \"#utility.yul\":10710:10740   */\n      swap4\n      pop\n        /* \"#utility.yul\":10783:10787   */\n      dup1\n        /* \"#utility.yul\":10773:10781   */\n      dup7\n        /* \"#utility.yul\":10769:10788   */\n      and\n        /* \"#utility.yul\":10762:10767   */\n      dup5\n        /* \"#utility.yul\":10759:10789   */\n      or\n        /* \"#utility.yul\":10749:10789   */\n      swap3\n      pop\n        /* \"#utility.yul\":10478:10795   */\n      pop\n      pop\n        /* \"#utility.yul\":10402:10795   */\n      swap4\n      swap3\n      pop\n      pop\n      pop\n      jump\t// out\n        /* \"#utility.yul\":10801:10861   */\n    tag_83:\n        /* \"#utility.yul\":10829:10832   */\n      0x00\n        /* \"#utility.yul\":10850:10855   */\n      dup2\n        /* \"#utility.yul\":10843:10855   */\n      swap1\n      pop\n        /* \"#utility.yul\":10801:10861   */\n      swap2\n      swap1\n      pop\n      jump\t// out\n        /* \"#utility.yul\":10867:11009   */\n    tag_84:\n        /* \"#utility.yul\":10917:10926   */\n      0x00\n        /* \"#utility.yul\":10950:11003   */\n      tag_198\n        /* \"#utility.yul\":10968:11002   */\n      tag_199\n        /* \"#utility.yul\":10977:11001   */\n      tag_200\n        /* \"#utility.yul\":10995:11000   */\n      dup5\n        /* \"#utility.yul\":10977:11001   */\n      tag_51\n      jump\t// in\n    tag_200:\n        /* \"#utility.yul\":10968:11002   */\n      tag_83\n      jump\t// in\n    tag_199:\n        /* \"#utility.yul\":10950:11003   */\n      tag_51\n      jump\t// in\n    tag_198:\n        /* \"#utility.yul\":10937:11003   */\n      swap1\n      pop\n        /* \"#utility.yul\":10867:11009   */\n      swap2\n      swap1\n      pop\n      jump\t// out\n        /* \"#utility.yul\":11015:11090   */\n    tag_85:\n        /* \"#utility.yul\":11058:11061   */\n      0x00\n        /* \"#utility.yul\":11079:11084   */\n      dup2\n        /* \"#utility.yul\":11072:11084   */\n      swap1\n      pop\n        /* \"#utility.yul\":11015:11090   */\n      swap2\n      swap1\n      pop\n      jump\t// out\n        /* \"#utility.yul\":11096:11365   */\n    tag_86:\n        /* \"#utility.yul\":11206:11245   */\n      tag_203\n        /* \"#utility.yul\":11237:11244   */\n      dup4\n        /* \"#utility.yul\":11206:11245   */\n      tag_84\n      jump\t// in\n    tag_203:\n        /* \"#utility.yul\":11267:11358   */\n      tag_204\n        /* \"#utility.yul\":11316:11357   */\n      tag_205\n        /* \"#utility.yul\":11340:11356   */\n      dup3\n        /* \"#utility.yul\":11316:11357   */\n      tag_85\n      jump\t// in\n    tag_205:\n        /* \"#utility.yul\":11308:11314   */\n      dup5\n        /* \"#utility.yul\":11301:11305   */\n      dup5\n        /* \"#utility.yul\":11295:11306   */\n      sload\n        /* \"#utility.yul\":11267:11358   */\n      tag_82\n      jump\t// in\n    tag_204:\n        /* \"#utility.yul\":11261:11265   */\n      dup3\n        /* \"#utility.yul\":11254:11359   */\n      sstore\n        /* \"#utility.yul\":11172:11365   */\n      pop\n        /* \"#utility.yul\":11096:11365   */\n      pop\n      pop\n      pop\n      jump\t// out\n        /* \"#utility.yul\":11371:11444   */\n    tag_87:\n        /* \"#utility.yul\":11416:11419   */\n      0x00\n        /* \"#utility.yul\":11371:11444   */\n      swap1\n      jump\t// out\n        /* \"#utility.yul\":11450:11639   */\n    tag_88:\n        /* \"#utility.yul\":11527:11559   */\n      tag_208\n      tag_87\n      jump\t// in\n    tag_208:\n        /* \"#utility.yul\":11568:11633   */\n      tag_209\n        /* \"#utility.yul\":11626:11632   */\n      dup2\n        /* \"#utility.yul\":11618:11624   */\n      dup5\n        /* \"#utility.yul\":11612:11616   */\n      dup5\n        /* \"#utility.yul\":11568:11633   */\n      tag_86\n      jump\t// in\n    tag_209:\n        /* \"#utility.yul\":11503:11639   */\n      pop\n        /* \"#utility.yul\":11450:11639   */\n      pop\n      pop\n      jump\t// out\n        /* \"#utility.yul\":11645:11831   */\n    tag_89:\n        /* \"#utility.yul\":11705:11825   */\n    tag_211:\n        /* \"#utility.yul\":11722:11725   */\n      dup2\n        /* \"#utility.yul\":11715:11720   */\n      dup2\n        /* \"#utility.yul\":11712:11726   */\n      lt\n        /* \"#utility.yul\":11705:11825   */\n      iszero\n      tag_213\n      jumpi\n        /* \"#utility.yul\":11776:11815   */\n      tag_214\n        /* \"#utility.yul\":11813:11814   */\n      0x00\n        /* \"#utility.yul\":11806:11811   */\n      dup3\n        /* \"#utility.yul\":11776:11815   */\n      tag_88\n      jump\t// in\n    tag_214:\n        /* \"#utility.yul\":11749:11750   */\n      0x01\n        /* \"#utility.yul\":11742:11747   */\n      dup2\n        /* \"#utility.yul\":11738:11751   */\n      add\n        /* \"#utility.yul\":11729:11751   */\n      swap1\n      pop\n        /* \"#utility.yul\":11705:11825   */\n      jump(tag_211)\n    tag_213:\n        /* \"#utility.yul\":11645:11831   */\n      pop\n      pop\n      jump\t// out\n        /* \"#utility.yul\":11837:12380   */\n    tag_90:\n        /* \"#utility.yul\":11938:11940   */\n      0x1f\n        /* \"#utility.yul\":11933:11936   */\n      dup3\n        /* \"#utility.yul\":11930:11941   */\n      gt\n        /* \"#utility.yul\":11927:12373   */\n      iszero\n      tag_216\n      jumpi\n        /* \"#utility.yul\":11972:12010   */\n      tag_217\n        /* \"#utility.yul\":12004:12009   */\n      dup2\n        /* \"#utility.yul\":11972:12010   */\n      tag_79\n      jump\t// in\n    tag_217:\n        /* \"#utility.yul\":12056:12085   */\n      tag_218\n        /* \"#utility.yul\":12074:12084   */\n      dup5\n        /* \"#utility.yul\":12056:12085   */\n      tag_80\n      jump\t// in\n    tag_218:\n        /* \"#utility.yul\":12046:12054   */\n      dup2\n        /* \"#utility.yul\":12042:12086   */\n      add\n        /* \"#utility.yul\":12239:12241   */\n      0x20\n        /* \"#utility.yul\":12227:12237   */\n      dup6\n        /* \"#utility.yul\":12224:12242   */\n      lt\n        /* \"#utility.yul\":12221:12270   */\n      iszero\n      tag_219\n      jumpi\n        /* \"#utility.yul\":12260:12268   */\n      dup2\n        /* \"#utility.yul\":12245:12268   */\n      swap1\n      pop\n        /* \"#utility.yul\":12221:12270   */\n    tag_219:\n        /* \"#utility.yul\":12283:12363   */\n      tag_220\n        /* \"#utility.yul\":12339:12361   */\n      tag_221\n        /* \"#utility.yul\":12357:12360   */\n      dup6\n        /* \"#utility.yul\":12339:12361   */\n      tag_80\n      jump\t// in\n    tag_221:\n        /* \"#utility.yul\":12329:12337   */\n      dup4\n        /* \"#utility.yul\":12325:12362   */\n      add\n        /* \"#utility.yul\":12312:12323   */\n      dup3\n        /* \"#utility.yul\":12283:12363   */\n      tag_89\n      jump\t// in\n    tag_220:\n        /* \"#utility.yul\":11942:12373   */\n      pop\n      pop\n        /* \"#utility.yul\":11927:12373   */\n    tag_216:\n        /* \"#utility.yul\":11837:12380   */\n      pop\n      pop\n      pop\n      jump\t// out\n        /* \"#utility.yul\":12386:12503   */\n    tag_91:\n        /* \"#utility.yul\":12440:12448   */\n      0x00\n        /* \"#utility.yul\":12490:12495   */\n      dup3\n        /* \"#utility.yul\":12484:12488   */\n      dup3\n        /* \"#utility.yul\":12480:12496   */\n      shr\n        /* \"#utility.yul\":12459:12496   */\n      swap1\n      pop\n        /* \"#utility.yul\":12386:12503   */\n      swap3\n      swap2\n      pop\n      pop\n      jump\t// out\n        /* \"#utility.yul\":12509:12678   */\n    tag_92:\n        /* \"#utility.yul\":12553:12559   */\n      0x00\n        /* \"#utility.yul\":12586:12637   */\n      tag_224\n        /* \"#utility.yul\":12634:12635   */\n      0x00\n        /* \"#utility.yul\":12630:12636   */\n      not\n        /* \"#utility.yul\":12622:12627   */\n      dup5\n        /* \"#utility.yul\":12619:12620   */\n      0x08\n        /* \"#utility.yul\":12615:12628   */\n      mul\n        /* \"#utility.yul\":12586:12637   */\n      tag_91\n      jump\t// in\n    tag_224:\n        /* \"#utility.yul\":12582:12638   */\n      not\n        /* \"#utility.yul\":12667:12671   */\n      dup1\n        /* \"#utility.yul\":12661:12665   */\n      dup4\n        /* \"#utility.yul\":12657:12672   */\n      and\n        /* \"#utility.yul\":12647:12672   */\n      swap2\n      pop\n        /* \"#utility.yul\":12560:12678   */\n      pop\n        /* \"#utility.yul\":12509:12678   */\n      swap3\n      swap2\n      pop\n      pop\n      jump\t// out\n        /* \"#utility.yul\":12683:12978   */\n    tag_93:\n        /* \"#utility.yul\":12759:12763   */\n      0x00\n        /* \"#utility.yul\":12905:12934   */\n      tag_226\n        /* \"#utility.yul\":12930:12933   */\n      dup4\n        /* \"#utility.yul\":12924:12928   */\n      dup4\n        /* \"#utility.yul\":12905:12934   */\n      tag_92\n      jump\t// in\n    tag_226:\n        /* \"#utility.yul\":12897:12934   */\n      swap2\n      pop\n        /* \"#utility.yul\":12967:12970   */\n      dup3\n        /* \"#utility.yul\":12964:12965   */\n      0x02\n        /* \"#utility.yul\":12960:12971   */\n      mul\n        /* \"#utility.yul\":12954:12958   */\n      dup3\n        /* \"#utility.yul\":12951:12972   */\n      or\n        /* \"#utility.yul\":12943:12972   */\n      swap1\n      pop\n        /* \"#utility.yul\":12683:12978   */\n      swap3\n      swap2\n      pop\n      pop\n      jump\t// out\n        /* \"#utility.yul\":12983:14378   */\n    tag_31:\n        /* \"#utility.yul\":13100:13137   */\n      tag_228\n        /* \"#utility.yul\":13133:13136   */\n      dup3\n        /* \"#utility.yul\":13100:13137   */\n      tag_54\n      jump\t// in\n    tag_228:\n        /* \"#utility.yul\":13202:13220   */\n      0xffffffffffffffff\n        /* \"#utility.yul\":13194:13200   */\n      dup2\n        /* \"#utility.yul\":13191:13221   */\n      gt\n        /* \"#utility.yul\":13188:13244   */\n      iszero\n      tag_229\n      jumpi\n        /* \"#utility.yul\":13224:13242   */\n      tag_230\n      tag_61\n      jump\t// in\n    tag_230:\n        /* \"#utility.yul\":13188:13244   */\n    tag_229:\n        /* \"#utility.yul\":13268:13306   */\n      tag_231\n        /* \"#utility.yul\":13300:13304   */\n      dup3\n        /* \"#utility.yul\":13294:13305   */\n      sload\n        /* \"#utility.yul\":13268:13306   */\n      tag_38\n      jump\t// in\n    tag_231:\n        /* \"#utility.yul\":13353:13420   */\n      tag_232\n        /* \"#utility.yul\":13413:13419   */\n      dup3\n        /* \"#utility.yul\":13405:13411   */\n      dup3\n        /* \"#utility.yul\":13399:13403   */\n      dup6\n        /* \"#utility.yul\":13353:13420   */\n      tag_90\n      jump\t// in\n    tag_232:\n        /* \"#utility.yul\":13447:13448   */\n      0x00\n        /* \"#utility.yul\":13471:13475   */\n      0x20\n        /* \"#utility.yul\":13458:13475   */\n      swap1\n      pop\n        /* \"#utility.yul\":13503:13505   */\n      0x1f\n        /* \"#utility.yul\":13495:13501   */\n      dup4\n        /* \"#utility.yul\":13492:13506   */\n      gt\n        /* \"#utility.yul\":13520:13521   */\n      0x01\n        /* \"#utility.yul\":13515:14133   */\n      dup2\n      eq\n      tag_234\n      jumpi\n        /* \"#utility.yul\":14177:14178   */\n      0x00\n        /* \"#utility.yul\":14194:14200   */\n      dup5\n        /* \"#utility.yul\":14191:14268   */\n      iszero\n      tag_235\n      jumpi\n        /* \"#utility.yul\":14243:14252   */\n      dup3\n        /* \"#utility.yul\":14238:14241   */\n      dup8\n        /* \"#utility.yul\":14234:14253   */\n      add\n        /* \"#utility.yul\":14228:14254   */\n      mload\n        /* \"#utility.yul\":14219:14254   */\n      swap1\n      pop\n        /* \"#utility.yul\":14191:14268   */\n    tag_235:\n        /* \"#utility.yul\":14294:14361   */\n      tag_236\n        /* \"#utility.yul\":14354:14360   */\n      dup6\n        /* \"#utility.yul\":14347:14352   */\n      dup3\n        /* \"#utility.yul\":14294:14361   */\n      tag_93\n      jump\t// in\n    tag_236:\n        /* \"#utility.yul\":14288:14292   */\n      dup7\n        /* \"#utility.yul\":14281:14362   */\n      sstore\n        /* \"#utility.yul\":14150:14372   */\n      pop\n        /* \"#utility.yul\":13485:14372   */\n      jump(tag_233)\n        /* \"#utility.yul\":13515:14133   */\n    tag_234:\n        /* \"#utility.yul\":13567:13571   */\n      0x1f\n        /* \"#utility.yul\":13563:13572   */\n      not\n        /* \"#utility.yul\":13555:13561   */\n      dup5\n        /* \"#utility.yul\":13551:13573   */\n      and\n        /* \"#utility.yul\":13601:13638   */\n      tag_237\n        /* \"#utility.yul\":13633:13637   */\n      dup7\n        /* \"#utility.yul\":13601:13638   */\n      tag_79\n      jump\t// in\n    tag_237:\n        /* \"#utility.yul\":13660:13661   */\n      0x00\n        /* \"#utility.yul\":13674:13882   */\n    tag_238:\n        /* \"#utility.yul\":13688:13695   */\n      dup3\n        /* \"#utility.yul\":13685:13686   */\n      dup2\n        /* \"#utility.yul\":13682:13696   */\n      lt\n        /* \"#utility.yul\":13674:13882   */\n      iszero\n      tag_240\n      jumpi\n        /* \"#utility.yul\":13767:13776   */\n      dup5\n        /* \"#utility.yul\":13762:13765   */\n      dup10\n        /* \"#utility.yul\":13758:13777   */\n      add\n        /* \"#utility.yul\":13752:13778   */\n      mload\n        /* \"#utility.yul\":13744:13750   */\n      dup3\n        /* \"#utility.yul\":13737:13779   */\n      sstore\n        /* \"#utility.yul\":13818:13819   */\n      0x01\n        /* \"#utility.yul\":13810:13816   */\n      dup3\n        /* \"#utility.yul\":13806:13820   */\n      add\n        /* \"#utility.yul\":13796:13820   */\n      swap2\n      pop\n        /* \"#utility.yul\":13865:13867   */\n      0x20\n        /* \"#utility.yul\":13854:13863   */\n      dup6\n        /* \"#utility.yul\":13850:13868   */\n      add\n        /* \"#utility.yul\":13837:13868   */\n      swap5\n      pop\n        /* \"#utility.yul\":13711:13715   */\n      0x20\n        /* \"#utility.yul\":13708:13709   */\n      dup2\n        /* \"#utility.yul\":13704:13716   */\n      add\n        /* \"#utility.yul\":13699:13716   */\n      swap1\n      pop\n        /* \"#utility.yul\":13674:13882   */\n      jump(tag_238)\n    tag_240:\n        /* \"#utility.yul\":13910:13916   */\n      dup7\n        /* \"#utility.yul\":13901:13908   */\n      dup4\n        /* \"#utility.yul\":13898:13917   */\n      lt\n        /* \"#utility.yul\":13895:14074   */\n      iszero\n      tag_241\n      jumpi\n        /* \"#utility.yul\":13968:13977   */\n      dup5\n        /* \"#utility.yul\":13963:13966   */\n      dup10\n        /* \"#utility.yul\":13959:13978   */\n      add\n        /* \"#utility.yul\":13953:13979   */\n      mload\n        /* \"#utility.yul\":14011:14059   */\n      tag_242\n        /* \"#utility.yul\":14053:14057   */\n      0x1f\n        /* \"#utility.yul\":14045:14051   */\n      dup10\n        /* \"#utility.yul\":14041:14058   */\n      and\n        /* \"#utility.yul\":14030:14039   */\n      dup3\n        /* \"#utility.yul\":14011:14059   */\n      tag_92\n      jump\t// in\n    tag_242:\n        /* \"#utility.yul\":14003:14009   */\n      dup4\n        /* \"#utility.yul\":13996:14060   */\n      sstore\n        /* \"#utility.yul\":13918:14074   */\n      pop\n        /* \"#utility.yul\":13895:14074   */\n    tag_241:\n        /* \"#utility.yul\":14120:14121   */\n      0x01\n        /* \"#utility.yul\":14116:14117   */\n      0x02\n        /* \"#utility.yul\":14108:14114   */\n      dup9\n        /* \"#utility.yul\":14104:14118   */\n      mul\n        /* \"#utility.yul\":14100:14122   */\n      add\n        /* \"#utility.yul\":14094:14098   */\n      dup9\n        /* \"#utility.yul\":14087:14123   */\n      sstore\n        /* \"#utility.yul\":13522:14133   */\n      pop\n      pop\n      pop\n        /* \"#utility.yul\":13485:14372   */\n    tag_233:\n      pop\n        /* \"#utility.yul\":13075:14378   */\n      pop\n      pop\n      pop\n        /* \"#utility.yul\":12983:14378   */\n      pop\n      pop\n      jump\t// out\n\n    auxdata: 0xa264697066735822122002b9a94d7fd5c69390efd7da73cade8703616e36adbeb4c79774aef719891e1864736f6c63430008170033\n}\n",
				"bytecode": {
					"linkReferences": {},
					"object": "608060405234801561000f575f80fd5b50610b2d8061001d5f395ff3fe608060405234801561000f575f80fd5b506004361061003f575f3560e01c8063674271cd14610043578063682ad06e14610073578063691ad41d1461008f575b5f80fd5b61005d60048036038101906100589190610428565b6100ad565b60405161006a91906104dd565b60405180910390f35b61008d60048036038101906100889190610629565b6101bc565b005b610097610256565b6040516100a4919061080e565b60405180910390f35b6060605a82106100f4576040518060400160405280600181526020017f410000000000000000000000000000000000000000000000000000000000000081525090506101b7565b60508210610139576040518060400160405280600181526020017f420000000000000000000000000000000000000000000000000000000000000081525090506101b7565b6046821061017e576040518060400160405280600181526020017f430000000000000000000000000000000000000000000000000000000000000081525090506101b7565b6040518060400160405280600181526020017f460000000000000000000000000000000000000000000000000000000000000081525090505b919050565b5f6101c6826100ad565b90505f604051806080016040528086815260200185815260200184815260200183815250908060018154018082558091505060019003905f5260205f2090600402015f909190919091505f820151815f0190816102239190610a28565b506020820151816001015560408201518160020155606082015181600301908161024d9190610a28565b50505050505050565b60605f805480602002602001604051908101604052809291908181526020015f905b828210156103db578382905f5260205f2090600402016040518060800160405290815f820180546102a89061085b565b80601f01602080910402602001604051908101604052809291908181526020018280546102d49061085b565b801561031f5780601f106102f65761010080835404028352916020019161031f565b820191905f5260205f20905b81548152906001019060200180831161030257829003601f168201915b50505050508152602001600182015481526020016002820154815260200160038201805461034c9061085b565b80601f01602080910402602001604051908101604052809291908181526020018280546103789061085b565b80156103c35780601f1061039a576101008083540402835291602001916103c3565b820191905f5260205f20905b8154815290600101906020018083116103a657829003601f168201915b50505050508152505081526020019060010190610278565b50505050905090565b5f604051905090565b5f80fd5b5f80fd5b5f819050919050565b610407816103f5565b8114610411575f80fd5b50565b5f81359050610422816103fe565b92915050565b5f6020828403121561043d5761043c6103ed565b5b5f61044a84828501610414565b91505092915050565b5f81519050919050565b5f82825260208201905092915050565b5f5b8381101561048a57808201518184015260208101905061046f565b5f8484015250505050565b5f601f19601f8301169050919050565b5f6104af82610453565b6104b9818561045d565b93506104c981856020860161046d565b6104d281610495565b840191505092915050565b5f6020820190508181035f8301526104f581846104a5565b905092915050565b5f80fd5b5f80fd5b7f4e487b71000000000000000000000000000000000000000000000000000000005f52604160045260245ffd5b61053b82610495565b810181811067ffffffffffffffff8211171561055a57610559610505565b5b80604052505050565b5f61056c6103e4565b90506105788282610532565b919050565b5f67ffffffffffffffff82111561059757610596610505565b5b6105a082610495565b9050602081019050919050565b828183375f83830152505050565b5f6105cd6105c88461057d565b610563565b9050828152602081018484840111156105e9576105e8610501565b5b6105f48482856105ad565b509392505050565b5f82601f8301126106105761060f6104fd565b5b81356106208482602086016105bb565b91505092915050565b5f805f606084860312156106405761063f6103ed565b5b5f84013567ffffffffffffffff81111561065d5761065c6103f1565b5b610669868287016105fc565b935050602061067a86828701610414565b925050604061068b86828701610414565b9150509250925092565b5f81519050919050565b5f82825260208201905092915050565b5f819050602082019050919050565b5f82825260208201905092915050565b5f6106d882610453565b6106e281856106be565b93506106f281856020860161046d565b6106fb81610495565b840191505092915050565b61070f816103f5565b82525050565b5f608083015f8301518482035f86015261072f82826106ce565b91505060208301516107446020860182610706565b5060408301516107576040860182610706565b506060830151848203606086015261076f82826106ce565b9150508091505092915050565b5f6107878383610715565b905092915050565b5f602082019050919050565b5f6107a582610695565b6107af818561069f565b9350836020820285016107c1856106af565b805f5b858110156107fc57848403895281516107dd858261077c565b94506107e88361078f565b925060208a019950506001810190506107c4565b50829750879550505050505092915050565b5f6020820190508181035f830152610826818461079b565b905092915050565b7f4e487b71000000000000000000000000000000000000000000000000000000005f52602260045260245ffd5b5f600282049050600182168061087257607f821691505b6020821081036108855761088461082e565b5b50919050565b5f819050815f5260205f209050919050565b5f6020601f8301049050919050565b5f82821b905092915050565b5f600883026108e77fffffffffffffffffffffffffffffffffffffffffffffffffffffffffffffffff826108ac565b6108f186836108ac565b95508019841693508086168417925050509392505050565b5f819050919050565b5f61092c610927610922846103f5565b610909565b6103f5565b9050919050565b5f819050919050565b61094583610912565b61095961095182610933565b8484546108b8565b825550505050565b5f90565b61096d610961565b61097881848461093c565b505050565b5b8181101561099b576109905f82610965565b60018101905061097e565b5050565b601f8211156109e0576109b18161088b565b6109ba8461089d565b810160208510156109c9578190505b6109dd6109d58561089d565b83018261097d565b50505b505050565b5f82821c905092915050565b5f610a005f19846008026109e5565b1980831691505092915050565b5f610a1883836109f1565b9150826002028217905092915050565b610a3182610453565b67ffffffffffffffff811115610a4a57610a49610505565b5b610a54825461085b565b610a5f82828561099f565b5f60209050601f831160018114610a90575f8415610a7e578287015190505b610a888582610a0d565b865550610aef565b601f198416610a9e8661088b565b5f5b82811015610ac557848901518255600182019150602085019450602081019050610aa0565b86831015610ae25784890151610ade601f8916826109f1565b8355505b6001600288020188555050505b50505050505056fea264697066735822122002b9a94d7fd5c69390efd7da73cade8703616e36adbeb4c79774aef719891e1864736f6c63430008170033",
					"opcodes": "PUSH1 0x80 PUSH1 0x40 MSTORE CALLVALUE DUP1 ISZERO PUSH2 0xF JUMPI PUSH0 DUP1 REVERT JUMPDEST POP PUSH2 0xB2D DUP1 PUSH2 0x1D PUSH0 CODECOPY PUSH0 RETURN INVALID PUSH1 0x80 PUSH1 0x40 MSTORE CALLVALUE DUP1 ISZERO PUSH2 0xF JUMPI PUSH0 DUP1 REVERT JUMPDEST POP PUSH1 0x4 CALLDATASIZE LT PUSH2 0x3F JUMPI PUSH0 CALLDATALOAD PUSH1 0xE0 SHR DUP1 PUSH4 0x674271CD EQ PUSH2 0x43 JUMPI DUP1 PUSH4 0x682AD06E EQ PUSH2 0x73 JUMPI DUP1 PUSH4 0x691AD41D EQ PUSH2 0x8F JUMPI JUMPDEST PUSH0 DUP1 REVERT JUMPDEST PUSH2 0x5D PUSH1 0x4 DUP1 CALLDATASIZE SUB DUP2 ADD SWAP1 PUSH2 0x58 SWAP2 SWAP1 PUSH2 0x428 JUMP JUMPDEST PUSH2 0xAD JUMP JUMPDEST PUSH1 0x40 MLOAD PUSH2 0x6A SWAP2 SWAP1 PUSH2 0x4DD JUMP JUMPDEST PUSH1 0x40 MLOAD DUP1 SWAP2 SUB SWAP1 RETURN JUMPDEST PUSH2 0x8D PUSH1 0x4 DUP1 CALLDATASIZE SUB DUP2 ADD SWAP1 PUSH2 0x88 SWAP2 SWAP1 PUSH2 0x629 JUMP JUMPDEST PUSH2 0x1BC JUMP JUMPDEST STOP JUMPDEST PUSH2 0x97 PUSH2 0x256 JUMP JUMPDEST PUSH1 0x40 MLOAD PUSH2 0xA4 SWAP2 SWAP1 PUSH2 0x80E JUMP JUMPDEST PUSH1 0x40 MLOAD DUP1 SWAP2 SUB SWAP1 RETURN JUMPDEST PUSH1 0x60 PUSH1 0x5A DUP3 LT PUSH2 0xF4 JUMPI PUSH1 0x40 MLOAD DUP1 PUSH1 0x40 ADD PUSH1 0x40 MSTORE DUP1 PUSH1 0x1 DUP2 MSTORE PUSH1 0x20 ADD PUSH32 0x4100000000000000000000000000000000000000000000000000000000000000 DUP2 MSTORE POP SWAP1 POP PUSH2 0x1B7 JUMP JUMPDEST PUSH1 0x50 DUP3 LT PUSH2 0x139 JUMPI PUSH1 0x40 MLOAD DUP1 PUSH1 0x40 ADD PUSH1 0x40 MSTORE DUP1 PUSH1 0x1 DUP2 MSTORE PUSH1 0x20 ADD PUSH32 0x4200000000000000000000000000000000000000000000000000000000000000 DUP2 MSTORE POP SWAP1 POP PUSH2 0x1B7 JUMP JUMPDEST PUSH1 0x46 DUP3 LT PUSH2 0x17E JUMPI PUSH1 0x40 MLOAD DUP1 PUSH1 0x40 ADD PUSH1 0x40 MSTORE DUP1 PUSH1 0x1 DUP2 MSTORE PUSH1 0x20 ADD PUSH32 0x4300000000000000000000000000000000000000000000000000000000000000 DUP2 MSTORE POP SWAP1 POP PUSH2 0x1B7 JUMP JUMPDEST PUSH1 0x40 MLOAD DUP1 PUSH1 0x40 ADD PUSH1 0x40 MSTORE DUP1 PUSH1 0x1 DUP2 MSTORE PUSH1 0x20 ADD PUSH32 0x4600000000000000000000000000000000000000000000000000000000000000 DUP2 MSTORE POP SWAP1 POP JUMPDEST SWAP2 SWAP1 POP JUMP JUMPDEST PUSH0 PUSH2 0x1C6 DUP3 PUSH2 0xAD JUMP JUMPDEST SWAP1 POP PUSH0 PUSH1 0x40 MLOAD DUP1 PUSH1 0x80 ADD PUSH1 0x40 MSTORE DUP1 DUP7 DUP2 MSTORE PUSH1 0x20 ADD DUP6 DUP2 MSTORE PUSH1 0x20 ADD DUP5 DUP2 MSTORE PUSH1 0x20 ADD DUP4 DUP2 MSTORE POP SWAP1 DUP1 PUSH1 0x1 DUP2 SLOAD ADD DUP1 DUP3 SSTORE DUP1 SWAP2 POP POP PUSH1 0x1 SWAP1 SUB SWAP1 PUSH0 MSTORE PUSH1 0x20 PUSH0 KECCAK256 SWAP1 PUSH1 0x4 MUL ADD PUSH0 SWAP1 SWAP2 SWAP1 SWAP2 SWAP1 SWAP2 POP PUSH0 DUP3 ADD MLOAD DUP2 PUSH0 ADD SWAP1 DUP2 PUSH2 0x223 SWAP2 SWAP1 PUSH2 0xA28 JUMP JUMPDEST POP PUSH1 0x20 DUP3 ADD MLOAD DUP2 PUSH1 0x1 ADD SSTORE PUSH1 0x40 DUP3 ADD MLOAD DUP2 PUSH1 0x2 ADD SSTORE PUSH1 0x60 DUP3 ADD MLOAD DUP2 PUSH1 0x3 ADD SWAP1 DUP2 PUSH2 0x24D SWAP2 SWAP1 PUSH2 0xA28 JUMP JUMPDEST POP POP POP POP POP POP POP JUMP JUMPDEST PUSH1 0x60 PUSH0 DUP1 SLOAD DUP1 PUSH1 0x20 MUL PUSH1 0x20 ADD PUSH1 0x40 MLOAD SWAP1 DUP2 ADD PUSH1 0x40 MSTORE DUP1 SWAP3 SWAP2 SWAP1 DUP2 DUP2 MSTORE PUSH1 0x20 ADD PUSH0 SWAP1 JUMPDEST DUP3 DUP3 LT ISZERO PUSH2 0x3DB JUMPI DUP4 DUP3 SWAP1 PUSH0 MSTORE PUSH1 0x20 PUSH0 KECCAK256 SWAP1 PUSH1 0x4 MUL ADD PUSH1 0x40 MLOAD DUP1 PUSH1 0x80 ADD PUSH1 0x40 MSTORE SWAP1 DUP2 PUSH0 DUP3 ADD DUP1 SLOAD PUSH2 0x2A8 SWAP1 PUSH2 0x85B JUMP JUMPDEST DUP1 PUSH1 0x1F ADD PUSH1 0x20 DUP1 SWAP2 DIV MUL PUSH1 0x20 ADD PUSH1 0x40 MLOAD SWAP1 DUP2 ADD PUSH1 0x40 MSTORE DUP1 SWAP3 SWAP2 SWAP1 DUP2 DUP2 MSTORE PUSH1 0x20 ADD DUP3 DUP1 SLOAD PUSH2 0x2D4 SWAP1 PUSH2 0x85B JUMP JUMPDEST DUP1 ISZERO PUSH2 0x31F JUMPI DUP1 PUSH1 0x1F LT PUSH2 0x2F6 JUMPI PUSH2 0x100 DUP1 DUP4 SLOAD DIV MUL DUP4 MSTORE SWAP2 PUSH1 0x20 ADD SWAP2 PUSH2 0x31F JUMP JUMPDEST DUP3 ADD SWAP2 SWAP1 PUSH0 MSTORE PUSH1 0x20 PUSH0 KECCAK256 SWAP1 JUMPDEST DUP2 SLOAD DUP2 MSTORE SWAP1 PUSH1 0x1 ADD SWAP1 PUSH1 0x20 ADD DUP1 DUP4 GT PUSH2 0x302 JUMPI DUP3 SWAP1 SUB PUSH1 0x1F AND DUP3 ADD SWAP2 JUMPDEST POP POP POP POP POP DUP2 MSTORE PUSH1 0x20 ADD PUSH1 0x1 DUP3 ADD SLOAD DUP2 MSTORE PUSH1 0x20 ADD PUSH1 0x2 DUP3 ADD SLOAD DUP2 MSTORE PUSH1 0x20 ADD PUSH1 0x3 DUP3 ADD DUP1 SLOAD PUSH2 0x34C SWAP1 PUSH2 0x85B JUMP JUMPDEST DUP1 PUSH1 0x1F ADD PUSH1 0x20 DUP1 SWAP2 DIV MUL PUSH1 0x20 ADD PUSH1 0x40 MLOAD SWAP1 DUP2 ADD PUSH1 0x40 MSTORE DUP1 SWAP3 SWAP2 SWAP1 DUP2 DUP2 MSTORE PUSH1 0x20 ADD DUP3 DUP1 SLOAD PUSH2 0x378 SWAP1 PUSH2 0x85B JUMP JUMPDEST DUP1 ISZERO PUSH2 0x3C3 JUMPI DUP1 PUSH1 0x1F LT PUSH2 0x39A JUMPI PUSH2 0x100 DUP1 DUP4 SLOAD DIV MUL DUP4 MSTORE SWAP2 PUSH1 0x20 ADD SWAP2 PUSH2 0x3C3 JUMP JUMPDEST DUP3 ADD SWAP2 SWAP1 PUSH0 MSTORE PUSH1 0x20 PUSH0 KECCAK256 SWAP1 JUMPDEST DUP2 SLOAD DUP2 MSTORE SWAP1 PUSH1 0x1 ADD SWAP1 PUSH1 0x20 ADD DUP1 DUP4 GT PUSH2 0x3A6 JUMPI DUP3 SWAP1 SUB PUSH1 0x1F AND DUP3 ADD SWAP2 JUMPDEST POP POP POP POP POP DUP2 MSTORE POP POP DUP2 MSTORE PUSH1 0x20 ADD SWAP1 PUSH1 0x1 ADD SWAP1 PUSH2 0x278 JUMP JUMPDEST POP POP POP POP SWAP1 POP SWAP1 JUMP JUMPDEST PUSH0 PUSH1 0x40 MLOAD SWAP1 POP SWAP1 JUMP JUMPDEST PUSH0 DUP1 REVERT JUMPDEST PUSH0 DUP1 REVERT JUMPDEST PUSH0 DUP2 SWAP1 POP SWAP2 SWAP1 POP JUMP JUMPDEST PUSH2 0x407 DUP2 PUSH2 0x3F5 JUMP JUMPDEST DUP2 EQ PUSH2 0x411 JUMPI PUSH0 DUP1 REVERT JUMPDEST POP JUMP JUMPDEST PUSH0 DUP2 CALLDATALOAD SWAP1 POP PUSH2 0x422 DUP2 PUSH2 0x3FE JUMP JUMPDEST SWAP3 SWAP2 POP POP JUMP JUMPDEST PUSH0 PUSH1 0x20 DUP3 DUP5 SUB SLT ISZERO PUSH2 0x43D JUMPI PUSH2 0x43C PUSH2 0x3ED JUMP JUMPDEST JUMPDEST PUSH0 PUSH2 0x44A DUP5 DUP3 DUP6 ADD PUSH2 0x414 JUMP JUMPDEST SWAP2 POP POP SWAP3 SWAP2 POP POP JUMP JUMPDEST PUSH0 DUP2 MLOAD SWAP1 POP SWAP2 SWAP1 POP JUMP JUMPDEST PUSH0 DUP3 DUP3 MSTORE PUSH1 0x20 DUP3 ADD SWAP1 POP SWAP3 SWAP2 POP POP JUMP JUMPDEST PUSH0 JUMPDEST DUP4 DUP2 LT ISZERO PUSH2 0x48A JUMPI DUP1 DUP3 ADD MLOAD DUP2 DUP5 ADD MSTORE PUSH1 0x20 DUP2 ADD SWAP1 POP PUSH2 0x46F JUMP JUMPDEST PUSH0 DUP5 DUP5 ADD MSTORE POP POP POP POP JUMP JUMPDEST PUSH0 PUSH1 0x1F NOT PUSH1 0x1F DUP4 ADD AND SWAP1 POP SWAP2 SWAP1 POP JUMP JUMPDEST PUSH0 PUSH2 0x4AF DUP3 PUSH2 0x453 JUMP JUMPDEST PUSH2 0x4B9 DUP2 DUP6 PUSH2 0x45D JUMP JUMPDEST SWAP4 POP PUSH2 0x4C9 DUP2 DUP6 PUSH1 0x20 DUP7 ADD PUSH2 0x46D JUMP JUMPDEST PUSH2 0x4D2 DUP2 PUSH2 0x495 JUMP JUMPDEST DUP5 ADD SWAP2 POP POP SWAP3 SWAP2 POP POP JUMP JUMPDEST PUSH0 PUSH1 0x20 DUP3 ADD SWAP1 POP DUP2 DUP2 SUB PUSH0 DUP4 ADD MSTORE PUSH2 0x4F5 DUP2 DUP5 PUSH2 0x4A5 JUMP JUMPDEST SWAP1 POP SWAP3 SWAP2 POP POP JUMP JUMPDEST PUSH0 DUP1 REVERT JUMPDEST PUSH0 DUP1 REVERT JUMPDEST PUSH32 0x4E487B7100000000000000000000000000000000000000000000000000000000 PUSH0 MSTORE PUSH1 0x41 PUSH1 0x4 MSTORE PUSH1 0x24 PUSH0 REVERT JUMPDEST PUSH2 0x53B DUP3 PUSH2 0x495 JUMP JUMPDEST DUP2 ADD DUP2 DUP2 LT PUSH8 0xFFFFFFFFFFFFFFFF DUP3 GT OR ISZERO PUSH2 0x55A JUMPI PUSH2 0x559 PUSH2 0x505 JUMP JUMPDEST JUMPDEST DUP1 PUSH1 0x40 MSTORE POP POP POP JUMP JUMPDEST PUSH0 PUSH2 0x56C PUSH2 0x3E4 JUMP JUMPDEST SWAP1 POP PUSH2 0x578 DUP3 DUP3 PUSH2 0x532 JUMP JUMPDEST SWAP2 SWAP1 POP JUMP JUMPDEST PUSH0 PUSH8 0xFFFFFFFFFFFFFFFF DUP3 GT ISZERO PUSH2 0x597 JUMPI PUSH2 0x596 PUSH2 0x505 JUMP JUMPDEST JUMPDEST PUSH2 0x5A0 DUP3 PUSH2 0x495 JUMP JUMPDEST SWAP1 POP PUSH1 0x20 DUP2 ADD SWAP1 POP SWAP2 SWAP1 POP JUMP JUMPDEST DUP3 DUP2 DUP4 CALLDATACOPY PUSH0 DUP4 DUP4 ADD MSTORE POP POP POP JUMP JUMPDEST PUSH0 PUSH2 0x5CD PUSH2 0x5C8 DUP5 PUSH2 0x57D JUMP JUMPDEST PUSH2 0x563 JUMP JUMPDEST SWAP1 POP DUP3 DUP2 MSTORE PUSH1 0x20 DUP2 ADD DUP5 DUP5 DUP5 ADD GT ISZERO PUSH2 0x5E9 JUMPI PUSH2 0x5E8 PUSH2 0x501 JUMP JUMPDEST JUMPDEST PUSH2 0x5F4 DUP5 DUP3 DUP6 PUSH2 0x5AD JUMP JUMPDEST POP SWAP4 SWAP3 POP POP POP JUMP JUMPDEST PUSH0 DUP3 PUSH1 0x1F DUP4 ADD SLT PUSH2 0x610 JUMPI PUSH2 0x60F PUSH2 0x4FD JUMP JUMPDEST JUMPDEST DUP2 CALLDATALOAD PUSH2 0x620 DUP5 DUP3 PUSH1 0x20 DUP7 ADD PUSH2 0x5BB JUMP JUMPDEST SWAP2 POP POP SWAP3 SWAP2 POP POP JUMP JUMPDEST PUSH0 DUP1 PUSH0 PUSH1 0x60 DUP5 DUP7 SUB SLT ISZERO PUSH2 0x640 JUMPI PUSH2 0x63F PUSH2 0x3ED JUMP JUMPDEST JUMPDEST PUSH0 DUP5 ADD CALLDATALOAD PUSH8 0xFFFFFFFFFFFFFFFF DUP2 GT ISZERO PUSH2 0x65D JUMPI PUSH2 0x65C PUSH2 0x3F1 JUMP JUMPDEST JUMPDEST PUSH2 0x669 DUP7 DUP3 DUP8 ADD PUSH2 0x5FC JUMP JUMPDEST SWAP4 POP POP PUSH1 0x20 PUSH2 0x67A DUP7 DUP3 DUP8 ADD PUSH2 0x414 JUMP JUMPDEST SWAP3 POP POP PUSH1 0x40 PUSH2 0x68B DUP7 DUP3 DUP8 ADD PUSH2 0x414 JUMP JUMPDEST SWAP2 POP POP SWAP3 POP SWAP3 POP SWAP3 JUMP JUMPDEST PUSH0 DUP2 MLOAD SWAP1 POP SWAP2 SWAP1 POP JUMP JUMPDEST PUSH0 DUP3 DUP3 MSTORE PUSH1 0x20 DUP3 ADD SWAP1 POP SWAP3 SWAP2 POP POP JUMP JUMPDEST PUSH0 DUP2 SWAP1 POP PUSH1 0x20 DUP3 ADD SWAP1 POP SWAP2 SWAP1 POP JUMP JUMPDEST PUSH0 DUP3 DUP3 MSTORE PUSH1 0x20 DUP3 ADD SWAP1 POP SWAP3 SWAP2 POP POP JUMP JUMPDEST PUSH0 PUSH2 0x6D8 DUP3 PUSH2 0x453 JUMP JUMPDEST PUSH2 0x6E2 DUP2 DUP6 PUSH2 0x6BE JUMP JUMPDEST SWAP4 POP PUSH2 0x6F2 DUP2 DUP6 PUSH1 0x20 DUP7 ADD PUSH2 0x46D JUMP JUMPDEST PUSH2 0x6FB DUP2 PUSH2 0x495 JUMP JUMPDEST DUP5 ADD SWAP2 POP POP SWAP3 SWAP2 POP POP JUMP JUMPDEST PUSH2 0x70F DUP2 PUSH2 0x3F5 JUMP JUMPDEST DUP3 MSTORE POP POP JUMP JUMPDEST PUSH0 PUSH1 0x80 DUP4 ADD PUSH0 DUP4 ADD MLOAD DUP5 DUP3 SUB PUSH0 DUP7 ADD MSTORE PUSH2 0x72F DUP3 DUP3 PUSH2 0x6CE JUMP JUMPDEST SWAP2 POP POP PUSH1 0x20 DUP4 ADD MLOAD PUSH2 0x744 PUSH1 0x20 DUP7 ADD DUP3 PUSH2 0x706 JUMP JUMPDEST POP PUSH1 0x40 DUP4 ADD MLOAD PUSH2 0x757 PUSH1 0x40 DUP7 ADD DUP3 PUSH2 0x706 JUMP JUMPDEST POP PUSH1 0x60 DUP4 ADD MLOAD DUP5 DUP3 SUB PUSH1 0x60 DUP7 ADD MSTORE PUSH2 0x76F DUP3 DUP3 PUSH2 0x6CE JUMP JUMPDEST SWAP2 POP POP DUP1 SWAP2 POP POP SWAP3 SWAP2 POP POP JUMP JUMPDEST PUSH0 PUSH2 0x787 DUP4 DUP4 PUSH2 0x715 JUMP JUMPDEST SWAP1 POP SWAP3 SWAP2 POP POP JUMP JUMPDEST PUSH0 PUSH1 0x20 DUP3 ADD SWAP1 POP SWAP2 SWAP1 POP JUMP JUMPDEST PUSH0 PUSH2 0x7A5 DUP3 PUSH2 0x695 JUMP JUMPDEST PUSH2 0x7AF DUP2 DUP6 PUSH2 0x69F JUMP JUMPDEST SWAP4 POP DUP4 PUSH1 0x20 DUP3 MUL DUP6 ADD PUSH2 0x7C1 DUP6 PUSH2 0x6AF JUMP JUMPDEST DUP1 PUSH0 JUMPDEST DUP6 DUP2 LT ISZERO PUSH2 0x7FC JUMPI DUP5 DUP5 SUB DUP10 MSTORE DUP2 MLOAD PUSH2 0x7DD DUP6 DUP3 PUSH2 0x77C JUMP JUMPDEST SWAP5 POP PUSH2 0x7E8 DUP4 PUSH2 0x78F JUMP JUMPDEST SWAP3 POP PUSH1 0x20 DUP11 ADD SWAP10 POP POP PUSH1 0x1 DUP2 ADD SWAP1 POP PUSH2 0x7C4 JUMP JUMPDEST POP DUP3 SWAP8 POP DUP8 SWAP6 POP POP POP POP POP POP SWAP3 SWAP2 POP POP JUMP JUMPDEST PUSH0 PUSH1 0x20 DUP3 ADD SWAP1 POP DUP2 DUP2 SUB PUSH0 DUP4 ADD MSTORE PUSH2 0x826 DUP2 DUP5 PUSH2 0x79B JUMP JUMPDEST SWAP1 POP SWAP3 SWAP2 POP POP JUMP JUMPDEST PUSH32 0x4E487B7100000000000000000000000000000000000000000000000000000000 PUSH0 MSTORE PUSH1 0x22 PUSH1 0x4 MSTORE PUSH1 0x24 PUSH0 REVERT JUMPDEST PUSH0 PUSH1 0x2 DUP3 DIV SWAP1 POP PUSH1 0x1 DUP3 AND DUP1 PUSH2 0x872 JUMPI PUSH1 0x7F DUP3 AND SWAP2 POP JUMPDEST PUSH1 0x20 DUP3 LT DUP2 SUB PUSH2 0x885 JUMPI PUSH2 0x884 PUSH2 0x82E JUMP JUMPDEST JUMPDEST POP SWAP2 SWAP1 POP JUMP JUMPDEST PUSH0 DUP2 SWAP1 POP DUP2 PUSH0 MSTORE PUSH1 0x20 PUSH0 KECCAK256 SWAP1 POP SWAP2 SWAP1 POP JUMP JUMPDEST PUSH0 PUSH1 0x20 PUSH1 0x1F DUP4 ADD DIV SWAP1 POP SWAP2 SWAP1 POP JUMP JUMPDEST PUSH0 DUP3 DUP3 SHL SWAP1 POP SWAP3 SWAP2 POP POP JUMP JUMPDEST PUSH0 PUSH1 0x8 DUP4 MUL PUSH2 0x8E7 PUSH32 0xFFFFFFFFFFFFFFFFFFFFFFFFFFFFFFFFFFFFFFFFFFFFFFFFFFFFFFFFFFFFFFFF DUP3 PUSH2 0x8AC JUMP JUMPDEST PUSH2 0x8F1 DUP7 DUP4 PUSH2 0x8AC JUMP JUMPDEST SWAP6 POP DUP1 NOT DUP5 AND SWAP4 POP DUP1 DUP7 AND DUP5 OR SWAP3 POP POP POP SWAP4 SWAP3 POP POP POP JUMP JUMPDEST PUSH0 DUP2 SWAP1 POP SWAP2 SWAP1 POP JUMP JUMPDEST PUSH0 PUSH2 0x92C PUSH2 0x927 PUSH2 0x922 DUP5 PUSH2 0x3F5 JUMP JUMPDEST PUSH2 0x909 JUMP JUMPDEST PUSH2 0x3F5 JUMP JUMPDEST SWAP1 POP SWAP2 SWAP1 POP JUMP JUMPDEST PUSH0 DUP2 SWAP1 POP SWAP2 SWAP1 POP JUMP JUMPDEST PUSH2 0x945 DUP4 PUSH2 0x912 JUMP JUMPDEST PUSH2 0x959 PUSH2 0x951 DUP3 PUSH2 0x933 JUMP JUMPDEST DUP5 DUP5 SLOAD PUSH2 0x8B8 JUMP JUMPDEST DUP3 SSTORE POP POP POP POP JUMP JUMPDEST PUSH0 SWAP1 JUMP JUMPDEST PUSH2 0x96D PUSH2 0x961 JUMP JUMPDEST PUSH2 0x978 DUP2 DUP5 DUP5 PUSH2 0x93C JUMP JUMPDEST POP POP POP JUMP JUMPDEST JUMPDEST DUP2 DUP2 LT ISZERO PUSH2 0x99B JUMPI PUSH2 0x990 PUSH0 DUP3 PUSH2 0x965 JUMP JUMPDEST PUSH1 0x1 DUP2 ADD SWAP1 POP PUSH2 0x97E JUMP JUMPDEST POP POP JUMP JUMPDEST PUSH1 0x1F DUP3 GT ISZERO PUSH2 0x9E0 JUMPI PUSH2 0x9B1 DUP2 PUSH2 0x88B JUMP JUMPDEST PUSH2 0x9BA DUP5 PUSH2 0x89D JUMP JUMPDEST DUP2 ADD PUSH1 0x20 DUP6 LT ISZERO PUSH2 0x9C9 JUMPI DUP2 SWAP1 POP JUMPDEST PUSH2 0x9DD PUSH2 0x9D5 DUP6 PUSH2 0x89D JUMP JUMPDEST DUP4 ADD DUP3 PUSH2 0x97D JUMP JUMPDEST POP POP JUMPDEST POP POP POP JUMP JUMPDEST PUSH0 DUP3 DUP3 SHR SWAP1 POP SWAP3 SWAP2 POP POP JUMP JUMPDEST PUSH0 PUSH2 0xA00 PUSH0 NOT DUP5 PUSH1 0x8 MUL PUSH2 0x9E5 JUMP JUMPDEST NOT DUP1 DUP4 AND SWAP2 POP POP SWAP3 SWAP2 POP POP JUMP JUMPDEST PUSH0 PUSH2 0xA18 DUP4 DUP4 PUSH2 0x9F1 JUMP JUMPDEST SWAP2 POP DUP3 PUSH1 0x2 MUL DUP3 OR SWAP1 POP SWAP3 SWAP2 POP POP JUMP JUMPDEST PUSH2 0xA31 DUP3 PUSH2 0x453 JUMP JUMPDEST PUSH8 0xFFFFFFFFFFFFFFFF DUP2 GT ISZERO PUSH2 0xA4A JUMPI PUSH2 0xA49 PUSH2 0x505 JUMP JUMPDEST JUMPDEST PUSH2 0xA54 DUP3 SLOAD PUSH2 0x85B JUMP JUMPDEST PUSH2 0xA5F DUP3 DUP3 DUP6 PUSH2 0x99F JUMP JUMPDEST PUSH0 PUSH1 0x20 SWAP1 POP PUSH1 0x1F DUP4 GT PUSH1 0x1 DUP2 EQ PUSH2 0xA90 JUMPI PUSH0 DUP5 ISZERO PUSH2 0xA7E JUMPI DUP3 DUP8 ADD MLOAD SWAP1 POP JUMPDEST PUSH2 0xA88 DUP6 DUP3 PUSH2 0xA0D JUMP JUMPDEST DUP7 SSTORE POP PUSH2 0xAEF JUMP JUMPDEST PUSH1 0x1F NOT DUP5 AND PUSH2 0xA9E DUP7 PUSH2 0x88B JUMP JUMPDEST PUSH0 JUMPDEST DUP3 DUP2 LT ISZERO PUSH2 0xAC5 JUMPI DUP5 DUP10 ADD MLOAD DUP3 SSTORE PUSH1 0x1 DUP3 ADD SWAP2 POP PUSH1 0x20 DUP6 ADD SWAP5 POP PUSH1 0x20 DUP2 ADD SWAP1 POP PUSH2 0xAA0 JUMP JUMPDEST DUP7 DUP4 LT ISZERO PUSH2 0xAE2 JUMPI DUP5 DUP10 ADD MLOAD PUSH2 0xADE PUSH1 0x1F DUP10 AND DUP3 PUSH2 0x9F1 JUMP JUMPDEST DUP4 SSTORE POP JUMPDEST PUSH1 0x1 PUSH1 0x2 DUP9 MUL ADD DUP9 SSTORE POP POP POP JUMPDEST POP POP POP POP POP POP JUMP INVALID LOG2 PUSH5 0x6970667358 0x22 SLT KECCAK256 MUL 0xB9 0xA9 0x4D PUSH32 0xD5C69390EFD7DA73CADE8703616E36ADBEB4C79774AEF719891E1864736F6C63 NUMBER STOP ADDMOD OR STOP CALLER "
				},
				"gasEstimates": {
					"creation": {
						"codeDepositCost": "572200",
						"executionCost": "604",
						"totalCost": "572804"
					},
					"external": {
						"addStudent(string,uint256,uint256)": "infinite",
						"getAray()": "infinite",
						"setGrade(uint256)": "infinite"
					}
				},
				"methodIdentifiers": {
					"addStudent(string,uint256,uint256)": "682ad06e",
					"getAray()": "691ad41d",
					"setGrade(uint256)": "674271cd"
				}
			},
			"storageLayout": {
				"storage": [
					{
						"astId": 14,
						"contract": "AAA.sol:AAA",
						"label": "students",
						"offset": 0,
						"slot": "0",
						"type": "t_array(t_struct(Student)10_storage)dyn_storage"
					}
				],
				"types": {
					"t_array(t_struct(Student)10_storage)dyn_storage": {
						"base": "t_struct(Student)10_storage",
						"encoding": "dynamic_array",
						"label": "struct AAA.Student[]",
						"numberOfBytes": "32"
					},
					"t_string_storage": {
						"encoding": "bytes",
						"label": "string",
						"numberOfBytes": "32"
					},
					"t_struct(Student)10_storage": {
						"encoding": "inplace",
						"label": "struct AAA.Student",
						"members": [
							{
								"astId": 3,
								"contract": "AAA.sol:AAA",
								"label": "name",
								"offset": 0,
								"slot": "0",
								"type": "t_string_storage"
							},
							{
								"astId": 5,
								"contract": "AAA.sol:AAA",
								"label": "number",
								"offset": 0,
								"slot": "1",
								"type": "t_uint256"
							},
							{
								"astId": 7,
								"contract": "AAA.sol:AAA",
								"label": "score",
								"offset": 0,
								"slot": "2",
								"type": "t_uint256"
							},
							{
								"astId": 9,
								"contract": "AAA.sol:AAA",
								"label": "grade",
								"offset": 0,
								"slot": "3",
								"type": "t_string_storage"
							}
						],
						"numberOfBytes": "128"
					},
					"t_uint256": {
						"encoding": "inplace",
						"label": "uint256",
						"numberOfBytes": "32"
					}
				}
			},
			"userdoc": {
				"kind": "user",
				"methods": {},
				"version": 1
			}
		}
	}
}