{
	"data": {
		"bytecode": {
			"linkReferences": {},
			"object": "608060405234801561000f575f80fd5b506102f78061001d5f395ff3fe608060405234801561000f575f80fd5b5060043610610029575f3560e01c8063fe99d72b1461002d575b5f80fd5b6100476004803603810190610042919061018f565b61005d565b6040516100549190610244565b60405180910390f35b6060602882101580156100715750603c8211155b801561008857505f6002836100869190610291565b145b156100ca576040518060400160405280600181526020017f41000000000000000000000000000000000000000000000000000000000000008152509050610153565b5f6003836100d89190610291565b0361011a576040518060400160405280600181526020017f42000000000000000000000000000000000000000000000000000000000000008152509050610153565b6040518060400160405280600481526020017f656c73650000000000000000000000000000000000000000000000000000000081525090505b919050565b5f80fd5b5f819050919050565b61016e8161015c565b8114610178575f80fd5b50565b5f8135905061018981610165565b92915050565b5f602082840312156101a4576101a3610158565b5b5f6101b18482850161017b565b91505092915050565b5f81519050919050565b5f82825260208201905092915050565b5f5b838110156101f15780820151818401526020810190506101d6565b5f8484015250505050565b5f601f19601f8301169050919050565b5f610216826101ba565b61022081856101c4565b93506102308185602086016101d4565b610239816101fc565b840191505092915050565b5f6020820190508181035f83015261025c818461020c565b905092915050565b7f4e487b71000000000000000000000000000000000000000000000000000000005f52601260045260245ffd5b5f61029b8261015c565b91506102a68361015c565b9250826102b6576102b5610264565b5b82820690509291505056fea2646970667358221220549e6b54b0140cc5c08137a04071a7f5cb08c5f63ac753d0a7452bb3c737ce7c64736f6c63430008170033",
			"opcodes": "PUSH1 0x80 PUSH1 0x40 MSTORE CALLVALUE DUP1 ISZERO PUSH2 0xF JUMPI PUSH0 DUP1 REVERT JUMPDEST POP PUSH2 0x2F7 DUP1 PUSH2 0x1D PUSH0 CODECOPY PUSH0 RETURN INVALID PUSH1 0x80 PUSH1 0x40 MSTORE CALLVALUE DUP1 ISZERO PUSH2 0xF JUMPI PUSH0 DUP1 REVERT JUMPDEST POP PUSH1 0x4 CALLDATASIZE LT PUSH2 0x29 JUMPI PUSH0 CALLDATALOAD PUSH1 0xE0 SHR DUP1 PUSH4 0xFE99D72B EQ PUSH2 0x2D JUMPI JUMPDEST PUSH0 DUP1 REVERT JUMPDEST PUSH2 0x47 PUSH1 0x4 DUP1 CALLDATASIZE SUB DUP2 ADD SWAP1 PUSH2 0x42 SWAP2 SWAP1 PUSH2 0x18F JUMP JUMPDEST PUSH2 0x5D JUMP JUMPDEST PUSH1 0x40 MLOAD PUSH2 0x54 SWAP2 SWAP1 PUSH2 0x244 JUMP JUMPDEST PUSH1 0x40 MLOAD DUP1 SWAP2 SUB SWAP1 RETURN JUMPDEST PUSH1 0x60 PUSH1 0x28 DUP3 LT ISZERO DUP1 ISZERO PUSH2 0x71 JUMPI POP PUSH1 0x3C DUP3 GT ISZERO JUMPDEST DUP1 ISZERO PUSH2 0x88 JUMPI POP PUSH0 PUSH1 0x2 DUP4 PUSH2 0x86 SWAP2 SWAP1 PUSH2 0x291 JUMP JUMPDEST EQ JUMPDEST ISZERO PUSH2 0xCA JUMPI PUSH1 0x40 MLOAD DUP1 PUSH1 0x40 ADD PUSH1 0x40 MSTORE DUP1 PUSH1 0x1 DUP2 MSTORE PUSH1 0x20 ADD PUSH32 0x4100000000000000000000000000000000000000000000000000000000000000 DUP2 MSTORE POP SWAP1 POP PUSH2 0x153 JUMP JUMPDEST PUSH0 PUSH1 0x3 DUP4 PUSH2 0xD8 SWAP2 SWAP1 PUSH2 0x291 JUMP JUMPDEST SUB PUSH2 0x11A JUMPI PUSH1 0x40 MLOAD DUP1 PUSH1 0x40 ADD PUSH1 0x40 MSTORE DUP1 PUSH1 0x1 DUP2 MSTORE PUSH1 0x20 ADD PUSH32 0x4200000000000000000000000000000000000000000000000000000000000000 DUP2 MSTORE POP SWAP1 POP PUSH2 0x153 JUMP JUMPDEST PUSH1 0x40 MLOAD DUP1 PUSH1 0x40 ADD PUSH1 0x40 MSTORE DUP1 PUSH1 0x4 DUP2 MSTORE PUSH1 0x20 ADD PUSH32 0x656C736500000000000000000000000000000000000000000000000000000000 DUP2 MSTORE POP SWAP1 POP JUMPDEST SWAP2 SWAP1 POP JUMP JUMPDEST PUSH0 DUP1 REVERT JUMPDEST PUSH0 DUP2 SWAP1 POP SWAP2 SWAP1 POP JUMP JUMPDEST PUSH2 0x16E DUP2 PUSH2 0x15C JUMP JUMPDEST DUP2 EQ PUSH2 0x178 JUMPI PUSH0 DUP1 REVERT JUMPDEST POP JUMP JUMPDEST PUSH0 DUP2 CALLDATALOAD SWAP1 POP PUSH2 0x189 DUP2 PUSH2 0x165 JUMP JUMPDEST SWAP3 SWAP2 POP POP JUMP JUMPDEST PUSH0 PUSH1 0x20 DUP3 DUP5 SUB SLT ISZERO PUSH2 0x1A4 JUMPI PUSH2 0x1A3 PUSH2 0x158 JUMP JUMPDEST JUMPDEST PUSH0 PUSH2 0x1B1 DUP5 DUP3 DUP6 ADD PUSH2 0x17B JUMP JUMPDEST SWAP2 POP POP SWAP3 SWAP2 POP POP JUMP JUMPDEST PUSH0 DUP2 MLOAD SWAP1 POP SWAP2 SWAP1 POP JUMP JUMPDEST PUSH0 DUP3 DUP3 MSTORE PUSH1 0x20 DUP3 ADD SWAP1 POP SWAP3 SWAP2 POP POP JUMP JUMPDEST PUSH0 JUMPDEST DUP4 DUP2 LT ISZERO PUSH2 0x1F1 JUMPI DUP1 DUP3 ADD MLOAD DUP2 DUP5 ADD MSTORE PUSH1 0x20 DUP2 ADD SWAP1 POP PUSH2 0x1D6 JUMP JUMPDEST PUSH0 DUP5 DUP5 ADD MSTORE POP POP POP POP JUMP JUMPDEST PUSH0 PUSH1 0x1F NOT PUSH1 0x1F DUP4 ADD AND SWAP1 POP SWAP2 SWAP1 POP JUMP JUMPDEST PUSH0 PUSH2 0x216 DUP3 PUSH2 0x1BA JUMP JUMPDEST PUSH2 0x220 DUP2 DUP6 PUSH2 0x1C4 JUMP JUMPDEST SWAP4 POP PUSH2 0x230 DUP2 DUP6 PUSH1 0x20 DUP7 ADD PUSH2 0x1D4 JUMP JUMPDEST PUSH2 0x239 DUP2 PUSH2 0x1FC JUMP JUMPDEST DUP5 ADD SWAP2 POP POP SWAP3 SWAP2 POP POP JUMP JUMPDEST PUSH0 PUSH1 0x20 DUP3 ADD SWAP1 POP DUP2 DUP2 SUB PUSH0 DUP4 ADD MSTORE PUSH2 0x25C DUP2 DUP5 PUSH2 0x20C JUMP JUMPDEST SWAP1 POP SWAP3 SWAP2 POP POP JUMP JUMPDEST PUSH32 0x4E487B7100000000000000000000000000000000000000000000000000000000 PUSH0 MSTORE PUSH1 0x12 PUSH1 0x4 MSTORE PUSH1 0x24 PUSH0 REVERT JUMPDEST PUSH0 PUSH2 0x29B DUP3 PUSH2 0x15C JUMP JUMPDEST SWAP2 POP PUSH2 0x2A6 DUP4 PUSH2 0x15C JUMP JUMPDEST SWAP3 POP DUP3 PUSH2 0x2B6 JUMPI PUSH2 0x2B5 PUSH2 0x264 JUMP JUMPDEST JUMPDEST DUP3 DUP3 MOD SWAP1 POP SWAP3 SWAP2 POP POP JUMP INVALID LOG2 PUSH5 0x6970667358 0x22 SLT KECCAK256 SLOAD SWAP15 PUSH12 0x54B0140CC5C08137A04071A7 CREATE2 0xCB ADDMOD 0xC5 0xF6 GASPRICE 0xC7 MSTORE8 0xD0 0xA7 GASLIMIT 0x2B 0xB3 0xC7 CALLDATACOPY 0xCE PUSH29 0x64736F6C63430008170033000000000000000000000000000000000000 "
		},
		"gasEstimates": {
			"creation": {
				"codeDepositCost": "151800",
				"executionCost": "194",
				"totalCost": "151994"
			},
			"external": {
				"Numbers(uint256)": "infinite"
			}
		},
		"methodIdentifiers": {
			"Numbers(uint256)": "fe99d72b"
		}
	},
	"abi": [
		{
			"inputs": [
				{
					"internalType": "uint256",
					"name": "_number",
					"type": "uint256"
				}
			],
			"name": "Numbers",
			"outputs": [
				{
					"internalType": "string",
					"name": "",
					"type": "string"
				}
			],
			"stateMutability": "pure",
			"type": "function"
		}
	]
}